:1000000000100020ED020000E5020000E502000003
:10001000F8B51148114A1AE055689368D4689D42B2
:1000200009D0002104E06E1877683668C0C3083133
:10003000A142F8D100E01B191469002103E000255A
:10004000002660C30831A142F9D1143201380028DA
:10005000E2D100F0CFFAC04601000000D406000053
:1000600080B584B000AF021CFB1D1A70224A3B1CF5
:100070000E3312781A70214A3B1C0F3312781A7013
:100080001F4B1B68013BBB601AE01E4B1868BA6827
:10009000391C0E31131C5B009B181B1801331B7895
:1000A0000B70184B1868BA68391C0F31131C5B00B1
:1000B0009B181B1802331B780B70BB68013BBB609D
:1000C000BB68002B0ADB0F4B1968BA68131C5B0076
:1000D0009B185B5CFA1D12789A42D6D90A4B3A1CDF
:1000E0000E3212781A60094B3A1C0F3212781A60DD
:1000F000BD4604B080BDC046CCF1FF0FCDF1FF0F6F
:10010000AC060000CC0000201CFF0B4020FF0B4081
:1001100080B500AF164A164B19688023DB020B43EB
:1001200013601820FFF79CFF124B19221A6005205C
:1001300000F0A2F9104B114A1278D2B21A600520D1
:1001400000F0FEF90A4B0A4A11680D4A0A401A608B
:100150000C4B10221A600C4A80231B0613600B4ABA
:1001600080231B0613600A4B0A4A1A60BD4680BDF5
:1001700000010B402CFF0B4028FF0B40E5F1FF0F67
:10018000FFFFFBFF2002024008010B4004010B406F
:10019000000002405F09000080B582B000AF72B677
:1001A000FB1C00221A7024E0FB1C1A78131C5B0055
:1001B0009B185B001A1C2E4BD3187B607B681A7847
:1001C000597809020A43997809040A43DB781B0627
:1001D00013431A1C7B6819795B791B020B439BB292
:1001E000101C191C00F058F9FB1CFA1C1278013283
:1001F0001A70FB1C1B78012BD6D91E4A1E4B101CF3
:10020000191C00F059F91D4AC0239B0113601C4AB8
:10021000EE231B0213601B4B08221A601A4AC023EC
:100220001B011360194AD8231B011360184A992334
:100230001B041360174A99231B041360164B174ABB
:100240001A60174B164A1278D1B202220A43D2B270
:100250001A70134B124A1278D1B206220A43D2B254
:100260001A70FFF755FF00F067F9BD4602B080BD78
:100270007C0600008806000098060000000001408F
:100280000C00014000000440080004400803044042
:1002900000500F4030500F40200105401000010079
:1002A00000700F4000B5034B1A78002A01D10120DD
:1002B000187000BDE000002008B504480368002B5A
:1002C00003D0034B002B00D0984708BDC800002086
:1002D0000000000080B500AF00F0BEF800F082F82A
:1002E000FEE7C04680B500AFFEE7C046014B9D4625
:1002F000014B1847001000201100000080B582B0AB
:1003000000AF00237B600FE079687B68032B04D883
:100310007A680D4B9200D35800E00C4B0C4A8900D0
:100320008B507B6801337B607B682F2BECD9FFF708
:1003300033FF084B00221A608023DB0501221A607C
:10034000BD4602B080BDC04600000000E5020000CE
:1003500000000020C000002080B500AF0F4A8423B9
:10036000DB0413600D4B0D4A12681A600B4B0B4AED
:1003700012681A600A4AC3239B001360002000F031
:100380005FF8084B181C00F03FF8074B181C00F0F2
:1003900049F8064B31221A60BD4680BD0001054078
:1003A00024010540102700008813000028010540A3
:1003B00080B582B000AF00F068F8031C1A1CFB1D6A
:1003C0001A70074B064A116801220A431A60FB1D86
:1003D0001B78181C00F05DF8BD4602B080BDC04619
:1003E0000000054080B500AF064B1B78002B04D100
:1003F000FFF7B2FF034B01221A70FFF7D9FFBD468A
:1004000080BDC046E100002080B582B000AF7860BA
:10041000034B7A681204120C1A60BD4602B080BD0C
:100420001401054080B582B000AF7860034B7A6854
:100430001204120C1A60BD4602B080BD0C010540CA
:1004400080B582B000AF7860024B7A681A60BD4612
:1004500002B080BD3801054080B500AF044A044BAE
:10046000196880231B060B431360BD4680BDC04640
:1004700000000240000000000230800804D0C046A6
:100480000138FDD1C046C0467047EFF3108072B608
:10049000704780F31088704780B582B000AF7860F5
:1004A00039607A683B68101C00211A1C00F05CF867
:1004B000BD4602B080BDC04680B586B000AF786052
:1004C00039600023FB600023BB602EE0BB689A000C
:1004D0007B68D3181B683B613B1C17333A691A7061
:1004E0003B69FF2293433B6117E0FB685A003B687E
:1004F000D3181B781A1C3B69D318FA6851003A6864
:100500008A1852781A70FB680133FB603B1C173362
:100510003A1C17321278013A1A703B1C17331B78B9
:10052000002BE2D1BB680133BB60BB68032BCDD984
:10053000BD4606B080BDC04680B500AFBD4680BD9B
:1005400080B582B000AF021CBB1D1A80BB1D1B888A
:10055000044A12785343181CFFF78EFFBD4602B0C1
:1005600080BDC046D800002030B5C9B2032A08D8E3
:10057000002A05D0031C1218197001339342FBD1D5
:1005800030BD8418031C032201E0197001331342AB
:10059000FBD10A02521815045219E51A11E01A602B
:1005A0005A609A60DA601A615A619A61DA611A6275
:1005B0005A629A62DA621A635A639A63DA63403D56
:1005C00040333F2DEBDCE51A05E01A605A609A6073
:1005D000DA60103D10330F2DF7DCE51A01E004C39B
:1005E000043D032DFBDC01E0197001339C42FBD874
:1005F000C6E7C04608B500F01DF80A4B002B01D134
:10060000002000E01868084B002B01D1002100E019
:1006100019680022FFF75EFE044B002B01D000E0BA
:1006200000BFFEE700000000000000000000000026
:10063000FEE7000070B50D4D0D4E761BB610002E76
:1006400005D0002408CD01349847A642FAD800F01E
:100650002FF8084D084E761BB610002E05D000244A
:1006600008CD01349847A642FAD870BDBC060000F8
:0C067000BC060000BC060000C406000030
:10067C0000300F40000400400F40000401330F40D5
:10068C0002400F4002410F4004430F40E2805304EC
:10069C00D4208B04970819088908C608E2010000C9
:1006AC0004000000F8B5C046F8BC08BC9E46704774
:1006BC00B9020000FD020000F8B5C046F8BC08BC49
:1006CC009E467047A502000000000000E8060000EE
:0C06DC00C800002018000000080000000A
:1006E80000000000C0F1FF0F00366E01C05D000081
:0806F800180000000000E02ED4
:04000003000002ED0A
:00000001FF
