:40000000021201008F828E83E0540100000070F82278FFE4F6D8FD021262900000EFF0753E00753F00754000754100754200900000E0FFEF7003D38001C39200900000E04C
:40004000FFEF700690000074FFF0122074D2AF9044F4E0FFEF54FDFFEFF0753A007B017A007901C003C002C0017B007A0079368B488A49894A900000E0FF8F4BD001D002CF
:40008000D0037D2C7C01120BA38F3DE53D64107003020588E53D64057003020588C3E5379407E5369400400A900001E0FFEF64016006753A0402013A7E007F03AA06A907A9
:4000C0007B011220248E3E8F3FAE3EAF3F74052FF58274003EF583AF82AE83AA06A9077B011220248E3B8F3CE53F2407FFE53E3400FED3EF9537EE95364005753A03803AAE
:40010000AE3EAF3F74072FF58274003EF583E0FFEF64176005753A0480207B017A007901E53F2404FDE53E3400FC121BCBEF653C7003EE653B6003753A087538007539008F
:40014000E53A600302057B900005E0FF8F35753A04900002E0FFEF12087701793101A532020B34030D35031637036E38022E3903CF3A05643B0000057820000302057BE57D
:400180003F453E600302057B753800753901120A24EF70047F0180027F00900005EFF0753A0002057B20000302057BE53F6401453E600302057BE535C394015042E535704F
:4001C000169004AF1208421207CE7B007A01790078001206F880087F007E007D007C008E228F23AF23900005EFF0E522FF7E00900006EFF090000774FFF0900008E4F07572
:400200003800753904753A0002057B30000BE53F6403453E600302057B7540017541207E017F207D007B017A01792D1208EE20000302057BC3E53F9403E53E94005003027A
:40024000057BE53F24FDFFE53E34FFFE7B017A007908C003C002C001AC40AD41742D2DF974013CFA7B01A801AC02AD03D001D002D0031209D6E53F24FDFFE53E34FFFEEFEC
:400280002541F541EE3540F540753E01753F20E541653F7004E540653E70667E007F06AA06A9077B011220248E408F41E542702B7E017F207D007B017A0279591208EE7B29
:4002C000017A02795990037F7401F0A37420F07DFF7C007F00120E017542017B017A01792D90037FE53EF0A3E53FF0AD41AC40AF35120E01EF60047F0A80027F008F3A8043
:4003000003753A0375400075410002057B754000754100020588E541253FFFE540353EFED3EF942CEE9401503F753A00AE3EAF3F7B017A007905C003C002C001AC40AD4151
:40034000742D2DF974013CFA7B01A801AC02AD03D001D002D0031209D6E53F2541F541E53E3540F54002057B753A0302057BE53F453E600302057B7BFF7A227980C003C0C0
:4003800002C0017B007A007924A801AC02AD03D001D002D0037E007F081209D6D200753800753908AE38AF397B007A007924C003C002C0017B017A007905A801AC02AD031F
:4003C000D001D002D0031209D6753A0002057B20000302057BE53F6403453E600302057B7E007F06AA06A9077B011220248E2C8F2DAE2CAF2D7C017D001208C1C004C0050E
:40040000C006C007AF35E4FCFDFE7B007A007901780012066DA804A905AA06AB07D007D006D005D0041206528F318E308D2F8C2EAF31AE30AD2FAC2EC004C005C006C0070A
:400440007F007E017D007C008F4A8E498D488C47D007D006D005D004121C668F32AF35E4FCFDFE7B007A007901780012066D7B087A00790078001206F8EF2400FFEE340025
:40048000FEED3408FDEC3400FCC004C005C006C007AE2CAF2D7C007D201208C1A804A905AA06AB07D007D006D005D0041206528F318E308D2F8C2E753300753400C3E5349F
:4004C0009420E5339400502FAE33AF34E4FCFDEF2531FFEE3530FEED352FFDEC352EFCA907AA06AB0512205CEF2532F5320534E5347002053380C6E5357052AE2CAF2DE48B
:40050000FCFD7BFF7A0079007800C3120797703DE52D30E0047F0080027F01900259EFF0900259E0FF7E00EF7F00FEC374D09FFF74FF9EFE8F828E83E493FFC3E5329FF5DE
:400540003290FFD1E493FFC3E5329FF532E532F4FFEF04FF900005EFF0753A007538007539018017120A24EF70069046FA7480F09046F67401F08010753A057C007D01AB4E
:4005800039AA38AF3A12110E30000302005A22BB010689828A83E0225002E722BBFE02E32289828A83E49322BB010689828A83F0225002F722BBFE01F322C5F0F8A3E0282F
:4005C000F0C5F0F8E582158270021583E038F022BB010A89828A83E0F5F0A3E022500687F009E71922BBFE07E3F5F009E3192289828A83E493F5F074019322BB01078982D1
:400600008A830205BA500B09C5F027F7C5F01937F722BBFE0D09F8E325F0F3C5F019E338F322F889828A8374019325F0C5F0F8E4933822BB010A89828A83F0E5F0A3F022E4
:400640005006F709A7F01922BBFE06F3E5F009F31922EF2BFFEE3AFEED39FDEC38FC22C3EF9BFFEE9AFEED99FDEC98FC22E88FF0A4CC8BF0A42CFCE98EF0A42CFC8AF0ED41
:40068000A42CFCEA8EF0A4CDA8F08BF0A42DCC3825F0FDE98FF0A42CCD35F0FCEB8EF0A4FEA9F0EB8FF0A4CFC5F02ECD39FEE43CFCEAA42DCE35F0FDE43CFC2275F0087526
:4006C0008200EF2FFFEE33FECD33CDCC33CCC58233C5829BED9AEC99E58298400CF582EE9BFEED9AFDEC99FC0FD5F0D6E4CEFBE4CDFAE4CCF9A88222B800C1B90059BA00B2
:400700002DEC8BF084CFCECDFCE5F0CBF97818EF2FFFEE33FEED33FDEC33FCEB33FB10D703994004EB99FB0FD8E5E4F9FA227818EF2FFFEE33FEED33FDEC33FCC933C910A1
:40074000D7059BE99A4007EC9BFCE99AF90FD8E0E4C9FAE4CCFB2275F010EF2FFFEE33FEED33FDCC33CCC833C810D7079BEC9AE899400AED9BFDEC9AFCE899F80FD5F0DA9A
:40078000E4CDFBE4CCFAE4C8F922EF4BFFEE4AFEED49FDEC48FC22EB9FF5F0EA9E42F0E99D42F0E89C45F022E8600FECC313FCED13FDEE13FEEF13FFD8F122E8600FEFC366
:4007C00033FFEE33FEED33FDEC33FCD8F122BB010789828A830207EE5005E9F80209FCBBFE05E9F8020A0889828A83020A14E0FCA3E0FDA3E0FEA3E0FF22E0F8A3E0F9A313
:40080000E0FAA3E0FB227401FF3395E0FEFDFC080808E6CF2FF618E6CE3EF618E6CD3DF618E6CC3CF622ECF0A3EDF0A3EEF0A3EFF022FAE6FB0808E6F925F0F618E6CA3AC5
:40084000F622E0FBA3E0FAA3E0F922F8E0FBA3A3E0F925F0F0E582158270021583E0FA38F022EBF0A3EAF0A3E9F022E493FB740193FA740293F922D083D082F8E493701223
:40088000740193700DA3A393F8740193F5828883E4737402936860EFA3A3A380DFE5092582F582E5083583F583B508048582092210AF06858209F50822858209F508D2AF5B
:4008C00022EC8EF0A4CCC5F0CCCDF8EFA4CEC5F02DFDE43CFCE8A42EC8C5F03DFDE43CFCEFA4FFE5F028FEE43DFDE43CFC22EF4E6012EF60010EEDBB010B89828A83F0A378
:40090000DFFCDEFA2289F05007F709DFFCA9F022BBFEFCF309DFFCA9F022E709F608DFFA8046E709F208DFFA803E88828C83E709F0A3DFFA8032E309F608DFFA806EE30963
:40094000F208DFFA806688828C83E309F0A3DFFA805A89828A83E0A3F608DFFA804E89828A83E0A3F208DFFA804280D280FA80C680D4805580F28029801080A680EA809A73
:4009800080A880DA80E280CA802988848C8589828A83E493A30586F0A30586DFF5DEF3800B89828A83E493A3F608DFF9ECFAA9F0EDFB2288848C8589828A83E0A30586F074
:4009C000A30586DFF6DEF480E389828A83E493A3F208DFF980D688F0EF60010E4E60CD88F0ED2402B4040050C3F582EB2402B4040050B9232345822390096A73E6FC08E6FF
:400A0000FD08E6FE08E6FF22E2FC08E2FD08E2FE08E2FF22E493FC740193FD740293FE740393FF2290FFC7E493FE740193FFEF2401FFEE3400FEEF7F00FE90FFCBE493FC1E
:400A4000740193FDEF2DFFEE3CFEE4FCFD8F4A8E498D488C47C201754B0090FFC7E493FE740193FFEF2401FFEE3400FEEF7F00FEE4FCFD8F468E458D448C43AF4AAE49AD43
:400A800048AC47AB46AA45A944A843C31207975040AF46AE45AD44AC438F828E83E493FF8F4CE54C6008E54C64FF6002D201E54C254BF54BAF46AE45AD44AC437B017A0004
:400AC000790078001206528F468E458D448C4380AA90FFC7E493FE740193FFEF2401FFEE3400FEEF7F00FEEF7803CEC313CE13D8F9FFE4FCFD8F468E458D448C437FC07E17
:400B0000FF7D007C00AB4AAA49A948A847C3120797700A7F007E207D007C00800DAF4AAE49AD48AC4778031207A88F4A8E498D488C47AF4AAE49AD48AC47AB46AA45A94454
:400B4000A843C3120797503FE5462400FFE5453400FEE5443408FDE5433400FCA907AA06AB0512205CEF254BF54BAF46AE45AD44AC437B017A00790078001206528F468E6B
:400B8000458D448C4380ABE54BF4FFEF04F54B90FFC0E493FFE54BB507032001037F06227F00228B438A4489458C468D47755405754C00754D00AF4B7E0AEF8EF0A4FFAE0E
:400BC000F0C3E54D9FE54C9E504212199DEF602712199D7E008E528F537F017E007D007C0012186D12199D7E00D3EF9553EE955250DE75540080157F017E007D007C0012E2
:400C0000186D054DE54D7002054C80AAAB48AA49A94AE475F000120633754E00754F0012199DEFD394005003020CDC12199D7E008E508F51AB48AA49A94AE5508551F01285
:400C400005FBAB48AA49A94A1205D0FFAEF0C3EF9547EE9546506A754C00754D00C3E54D9551E54C95505029121B71AB43AA44A945AC4EAD4FE92DF9EA3CFAEF1205A805D9
:400C80004FE54F7002054E054DE54D7002054C80CCAB43AA44A945E54F24FFFFE54E34FFFEE92FF9EA3EFA12058FFFEF64177003020C1F7F017E007D007C0012186D020C57
:400CC0001FAB48AA49A94A1205D0FFAEF0C3EF9551FFEE9550FEEE8FF0120633AF54227B007A4679E812205CEF4405FD7B007A4679E8122068752300E523C39408503AAF66
:400D000023EF75F005A42453F582E43422F583AF82AE838E218F22AE21AF228F828E8312086BAE21AF228F828E83740393FC740493FD121F8C052380BF7E207FA8121DD230
:400D40007B017A50790312205CEF4402FD7B017A5079031220687B017A50791312205CEF4402FD7B017A5079131220689043A0E0FFEF4440FF9043A0EFF09043C2E0FFEF1E
:400D80004410FF9043C2EFF07C207DA07B007A5179027F087E00121F489044F47401F0904322E0FFEF4408FF904322EFF09046ECE0FFEFC394055006904689743AF090484E
:400DC0000074F1F012101990480074B1F0121D377B007A4379A0C003C002C0017B007A4379B0900005120862D001D002D0037F0E7E00121D6D9043B0E0FFEF54FDFFEFF06A
:400E000022900379EFF090037AECF0A3EDF090037C120862121E6BEF6003020F14900379E0FF90037C12084290037FE0FCA3E0FD900386ECF0A3EDF0121609900381EFF042
:400E4000900381E0FFEF64076003020F0F904722E0FFEF5402FF7E00EF4E70097F017E00121E9C80E8904722E0FFEF5402FF7E00EF4E600D904722E0FFEF1313543FFF80DD
:400E8000027FFFEF7007900381E4F0800690038174FFF0900381E0FFEF7074900379E0FF90037AE0FCA3E0FD90058BE0FB90058CE0FE900386EEF0121751900381EFF0905F
:400EC0000381E0FFEF64077046904722E0FFEF5402FF7E00EF4E70097F017E00121E9C80E8904722E0FFEF5402FF7E00EF4E600D904722E0FFEF1313543FFF80027FFFEF4B
:400F00007007900381E4F0800690038174FFF0121FBD80069003817404F0900381E0FF22900379EFF090037AE4F0A3E4F0900536E0FF7E00EF24FFFFEE34FFFE90037AEEBA
:400F4000F0A3EFF090037AE0FEA3E0FFC3EE9400500990037AE4F0A3743FF0900538E0FF7E0090037AE0FCA3E0FDEF6D7002EE6C60BB12208C90058EE0FFEF5461FF9064A0
:400F800064E0FEEF4EFF90058EEFF0900538E0FF900536E0FEEEB5071B90058EE0FFEF5402FF7E00EF4E600C900379E0FF906442EFF08061900538E004F0900538E0FFEF0D
:400FC000C394404005900538E4F0900536E0FF900538E0FEEEB5071C900536E004F0900536E0FFEFC394404005900536E4F09004B47401F0900379E0FF900538E0FE74F5FA
:401000002EF582E43404F583EFF0906484E0FFEF4402FFEFF012207E227B007A4079807D0B7C001220319040827418F09043007402F09040007408F09042007403F07B0CC4
:401040007A01790812205C9046A1EFF07B007A4279227D087C001220317B007A4279207D517C10122031900004E4F07F197E007D007C009000001208269000001207EED31C
:40108000EF9400EE9400404E900004E0FFEF64036044904225E0FFEF5401FF7E00900004E0FEEE25E0FEEE4FFFEF5403FF900004EFF07FE07E017D007C00121E00900000AB
:4010C0001207EE7BFF7AFF79FF78FF12065290000012082680A37B007A4079047D007C011220319040047407F0904006E4F09040087448F0904004E4F09040017402F090BF
:4011000043A2E0FFEF4401FF9043A2EFF0228F438C448D458A468B47AE44AF458F828E837401F0AE44AF458F828E83A3E543F0AF47AC44AD458D828C83A3A3EFF0E546FFB7
:401140007E00AC44AD458D828C83A3A3A3EFF0AE44AF45AA06A9077B01E5472404FDE5463400FC121BCB8E488F49AF49E5472404FDE5463400FCAA44AB458B828A83E58212
:401180002DF582E5833CF583EFF0E548FF7E00E5472405FDE5463400FCAA44AB458B828A83E5822DF582E5833CF583EFF0E5472406FFE5463400FEAC44AD458D828C83E5A4
:4011C000822FF582E5833EF5837417F0AE44AF45AA06A9077B01C003C002C001E5472407FDE5463400FC7B007A0079468B4F8A508951755296D001D002D00312155E7E005F
:401200002275930078007583467582E8E04401F0009046ECE0F99046FAE0FAB903225420B40012B8001AEA901FFFF07401901FFEF09046F6F0901FFEE06005901FFFE0FADB
:4012400090480074C0F0758157121DA190000078007920E4F0A3D8FCD9FAEA900583F002001175081F7509FD120CDF0212A902209AE493A3F8E493A34003F68001F208DF45
:40128000F48029E493A3F85407240CC8C333C4540F4420C8834004F456800146F6DFE4800B01020408102040809012EEE47E019360BCA3FF543F30E509541FFEE493A360E8
:4012C000010ECF54C025E060A840B8E493A3FAE493A3F8E493A3C8C582C8CAC583CAF0A3C8C582C8CAC583CADFE9DEE780BE43038CFF227B4304AFFF227C43058800000022
:4013000044057F016E360044057A00005DC041057E184405842EE00000604004F5000000000000000000000000000000000000000000000000000000000000000000000010
:40134000000000000000000000000000000000000000000000000000000000000041053600410538004104B400604004B50000000000000000000000000000000000000021
:4013800000000000000000000000000000000000000000000000000000000000000000000000000000000000000000000041053500410537004104B2004104B30041058F71
:4013C0000041058E0041058D0000C0E0C083C082C085C084C086758600C093759300C0D075D000C006C00790038BE4F090058DE0FFEF5461FF906463E0FEEF4EFF90058D71
:40140000EFF090058DE0FFEF5408FF7E00EF64084E7079906452E0FF90038BEFF0900537E004F0900537E0FFEFC394404005900537E4F0900535E0FF900537E0FEEEB5079D
:401440001C900535E004F0900535E0FFEFC394404005900535E4F09004B27401F090038BE0FF900537E0FE74B52EF582E43404F583EFF090058DE0FFEF5461FF906463E032
:40148000FEEF4EFF90058DEFF0021402D007D006D0D0D093D086D084D085D082D083D0E032C0E0C083C082C085C084C086758600C093759300C0D075D000C006C007900562
:4014C00038E0FF900536E0FEEE6F606490058EE0FFEF5461FF906464E0FEEF4EFF90058EEFF090058EE0FFEF5402FF7E00EF4E603F9004B4E0FFEF7018900536E004F09085
:401500000536E0FFEFC39440400C900536E4F080059004B4E4F0900536E0FF74F52FF582E43404F583E0FF906442EFF08090808E900538E0FF900536E0FEEEB5070B906422
:4015400084E0FFEF54FDFFEFF0D007D006D0D0D093D086D084D085D082D083D0E0328B4A8A4B894C8C4D8D4E755305755400755500AF527E0AEF8EF0A4FFAEF08E568F5720
:40158000121EC9AB4AAA4BA94CAE54AF55E92FF9EA3EFA12058FFF1220120555E55570020554AB4AAA4BA94CAE54AF55E92FF9EA3EFA12058FFF120F200555E555700205C9
:4015C00054C3E555954EE554954D40D6E55745566031121EC97E00EF30E013AB4FAA50A951E54D854EF012063375530080157F017E007D007C0012186DE55715577002154D
:401600005680C9121E3BAF5322900382EFF09003831208629003887407F0904722E0FFEF5402FF7E00EF4E607B90472074B6F090472074D5F09047207402F0904722E0FF48
:40164000EF5402FF7E00EF4E7052900382E0FF904720EFF0900389E4F0A3E4F0900386E0FEA3E0FF900389E0FCA3E0FDC3ED9FEC9E5037900383120842900389E0FEA3E038
:40168000FFE92FF9EA3EFA12058FFF904720EFF0900389E475F0011205BA80C09003887409F080069003887404F0900388E0FF227F007E007D007C00C004C005C006C0074D
:4016C0009004AF1208421207CE8F4A8E498D488C47D007D006D005D004121C668F2190038C12084212058FFFC3E5219FF521E521F4FFEF04F52190038C12084212058FFFB2
:40170000E521B507219004AF1208421207CEEC4D4E4F6012121F6EEF700C7B017A03798F121A5DEF60057F00121FD3120A24EF700D9046FAE0FFEF54C0FFEFB4400A90466D
:40174000FAE4F07F0012001A7FC812001A12204F22900382EFF0900383ECF0A3EDF0900385EBF09003877407F0904722E0FFEF5402FF7E00EF4E606790472074B6F0904776
:401780002074D8F09047207405F0904722E0FFEF5402FF7E00EF4E703E900382E0FF904720EFF0900383E0FEA3E0FFEEFF7E00904720EFF0900383E0FEA3E0FF904720EF0B
:4017C000F0900385E0FF904720EFF0900386E0FF904720EFF0800E9003877409F080069003877404F0900387E0FF22900379EFF090037AECF0A3EDF0900379E0FFEFD39491
:401800001F5003D38001C340057F00121FD3900379E0FFEF541FFF7E00EF25E0FFEE33FEEF2400FFEE3444FEAA06A9077B0112202490037CEEF0A3EFF0900379E0FF7E02F9
:40184000EF8EF0A4FFAEF0EF2400FFEE3444FEAA06A9077B0190037AE0FEA3E0FFAD07AC0612203390037CE0FEA3E0FF2290FFFC12089D1208268508838509821207EED323
:40188000EF9400EE9480402F9005841207EE121E00850883850982C083C0821207EEEF2400FFEE3480FEED34FFFDEC34FFFCD082D08312082680BF90057A1207EE85088304
:4018C0008509821207FA12066D121E0090000412089D22121F2190000174FFF0121E6BEF704A7F01121B16EF6407703B7B017A05798B7D02121938EFB4021D900001E4F049
:40190000904722E0FFEF5402FF7E00EF4E70187F017E00121E9C80E8904722E0FFEF5402FF7E00EF4E60C5121FBD80069000017404F0900001E0FF2290000212086290007D
:4019400005EDF0900006E4F0900005E0FF900006E0FEEEC39F5040904722E0FFEF5401FF7E00EF4E6003D38001C340097F017E00121E9C80E2904720E0FF900002120842CA
:40198000900006E0FEE92EF9E43AFAEF1205A8900006E004F080B1900006E0FF22900379E4F0122093900537E0FF900535E0FEEEB50707900379E4F0803B900537E0FF902C
:4019C0000535E0FEEEC39F5015900535E0FF900537E0FEC3EE9FFF900379EFF08017900535E0FFC374409FFF900537E0FEEF2EFF900379EFF0122085900379E0FF22900330
:401A000079EFF090037AEDF090037AE0FFEFD394075003D38001C340057F00121FD3900379E0FFEFD3941F5003D38001C340057F00121FD390037AE0FFEF5407FF7E00EFB5
:401A400075F020A4FFAEF0900379E0FEEE541FFE74802EF582E43444F583EFF022900000120862900003E4F0121F217B007A007900C003C002C001900000120842D082D062
:401A800083D0E06B7008E965827003EA658370089000037401F0801D121E6BEF60089000037404F0800F900000120842900588120862121FBD900003E0FF2290648274077A
:401AC000F09044C87402F07C147DA17F011217EB7D077F011219FE9044C87401F07C137DCA7F001217EB7D077F001219FE121C1B900535E4F0900537E4F0900536E4F09039
:401B00000538E4F0121EC9121EF5906484E4F09064837408F022900002EFF09000037407F0904722E0FFEF5402FF7E00EF4E603590472074B6F090472074E1F09047207492
:401B40000EF0904722E0FFEF5402FF7E00EF4E700C900002E0FF904720EFF0800E9000037409F080069000037404F0900003E0FF22900379E4F0122093900537E0FF900545
:401B800035E0FEEE6F60259004B2E0FFEF7018900535E004F0900535E0FFEFC39440400C900535E4F080059004B2E4F0900535E0FF74B52FF582E43404F583E0FF90037947
:401BC000EFF0122085900379E0FF228B4A8A4B894C8C4D8D4E754F00755000E54E154EAE4D7002154DFFD3EF9400EE9400401B784AE475F00112083212058FFF7E00EF2560
:401C000050F550EE354FF54F80D1E550F4FFE54FF4FEEF2401FFEE3400FE22900379E4F0906463E0FFEF5408FF7E00EF4E70047F0180027F00EF7007906452E0FF80E11257
:401C40001FFD900379EFF0906492E0FFEF4403FFEFF0906492E0FFEF54FCFFEFF0900379E0FF121FA5228F468E458D448C43754B00784774FF1208087B007A00790078003D
:401C8000C31207975024AA49AB4AAF46AE45AD44AC438F828E83E5822BF582E5833AF583E493FFEF254BF54B80C7AF4B22900379E4F0121FFD900379EFF0906492E0FFEF83
:401CC0004403FFEFF0906492E0FFEF54FCFFEFF0900379E0FF121FA512208C900536E4F0900538E4F0906484E0FFEF54FDFFEFF012207E22900379E4F0121FFD900379EF2E
:401D0000F0906492E0FFEF4420FFEFF0906494E0FFEF4410FFEFF0906493E0FFEF4410FFEFF0900379E0FF121FA59044C07402F09044C07401F0227B0C7A0179CF12205C60
:401D4000900000EFF0900000E0FFEF5407FF90586EEFF0900000E0FFEFC4540FFFEF540FFF90586FEFF09058767444F022758600EF4E6027EF60010E759300900005E0F545
:401D800095A3E0F585A3E0F5848B938A838982E0A30586F0A31586DFF6DEF4E4F593F595229046FAE0FFEF54C0FFEFB480239046FAE4F090FFC3E493FE740193FFEF4E605E
:401DC0001090FFC3E493FE740193FFE4FCFD12204022ACEAADA08E838F82E493F9601CA3E493F5EAA3E493F5A0A3E49360F1FAA3E493F8A3E493F2DAF6D9E48DA08CEA2226
:401E0000EC4D4E700D78FCEF24E950032840FD2200007BF178DA0000EF28FF78FFEE38FEED38FDEC38FC50E7EF2BFFEE38FEED38FDEC38FC40F22205020304906463E0FF55
:401E4000EF5408FF7E00EF4E70047F0180027F00EF7007906452E0FF80E1122093900535E4F0900537E4F0122085229003827404F0121FFD900383EFF090058FE0FFEF709E
:401E80000B90058F7401F0900382E4F0900383E0FF121FA5900382E0FF220000EEFA90057EE0F88FF0A4FFAEF0E88AF0A42EFEE5F03400FDEF24C9FF78FFEE38FEED38FD61
:401EC000E438FC5003021E0022900379E4F012208C90058EE0FFEF5461FF906464E0FEEF4EFF900379EFF090058EE4F012207E900379E0FF22900379E4F012209390058D1A
:401F0000E0FFEF5461FF906463E0FEEF4EFF900379EFF090058DE4F0122085900379E0FF22121FFD900004EFF09043A0E0FFEF4408FFEFF09043B0E0FFEF4408FFEFF090F2
:401F40000004E0FF121FA522758600EF4E601BEF60010E8C838D828B958A858984E493A30586F0A31586DFF5DEF3E4F595221218D3900000EFF0900000E0FFEF70081218A7
:401F8000D3900000EFF0900000E0FF22EC4D6011ED60010C8B938A838982E4F0A3DDFCDCFA75930022EF54016004D2AF8002C2AFEF5402FF9044F4E054FD4FF022121FFDDC
:401FC000900382EFF090058FE4F0900382E0FF121FA52290FFFF12089DEFF09046EA7401F090000112089D229004B3E0FFEF7009121ABB9004B37401F0121CF4229044F429
:40200000E0F84402F0E85402FF10AF012274014FFF22900379EFF0900379E0FF906402EFF0228B938A838982E0FFA3E0FE759300228B938A838982EDF0A3ECF07593002245
:40204000900583E0FA8E838F827400758101739046FA7480F09046F67401F0228B938A838982E0759300FF228B938A838982EDF075930022121FE8121E3B121CAD22904496
:40208000C07402F0229044C07401F0229044C87402F0229044C87401F0221216B080FE2288202000200000000C005201002000640382078378844701023402210C100E015C
:4020C000121E1C011E022401260828012A043020361F3E404002410342204401450E46FC47DB483D49FF4AFF4BFF4C224EF04F0C508C5110560258045A245B245C085D8824
:402100005F31684069016AC06B01860388019C04B202B401B604BE50D420D604D804DB04DF0101031E00100108064007010A010E82171418151D801E8045A84E105450561F
:402140000257045A01600562056E566F157F8082018380C096C291C460D070D601D80FDE8001041F0C0512011E073002340436013E505441560458045B045F018301850135
:402180008901910192019C01A401A801AF01B401B501B808BE14BF10D608D804D904DB04DF01010532004008410E421714184019401B101D2827082E4036013C803D403E0B
:4021C0001644084604580459405A205C205D415F08636064496508664084048640874092749A029B149D089E04A040A201A528AE40B010B201B704C001C299C460CA10CCC1
:4022000080CEE0D6FED8F3EA40010703A820AA02B12101400333103640CC3001410C05100E015D02811083109F10A640C080C280D680E220E4200142068640A640AE01B59C
:4022400002E640E810015003000108010A01015101000F00511000600051C000100051F00010010000100001140008000140000A00014C0002000150000020E10000230003
:402280006980021E03000101000000000000000000000000000000000000000000000000000000000000000000000000000000000000000000000000000000000000000010
:4022C00000000000000000000000000000000000000000000000000000000000000000000000000000000000000000000000000000000000000000000000000000000000DE
:40230000000000000000000000000000000000000000000000000000000000000000000000000000000000000000000000000000000000000000000000000000000000009D
:40234000000000000000000000000000000000000000000000000000000000000000000000000000000000000000000000000000000000000000000000000000000000005D
:40238000000000000000000000000000000000000000000000000000000000000000000000000000000000000000000000000000000000000000000000000000000000001D
:40FFC00000000000000000000000000000000000000000000100010000000000000000000000000000000000000000000000000000000000000000000000000000000000FF
:0200000480007A
:4000000000000000000000000000000000000000000000000000000000000000000000000000000000000000000000000000000000000000000000000000000000000000C0
:400040000000000000000000000000000000000000000000000000000000000000000000000000000000000000000000000000000000000000000000000000000000000080
:400080000000000000000000000000000000000000000000000000000000000000000000000000000000000000000000000000000000000000000000000000000000000040
:4000C0000000000000000000000000000000000000000000000000000000000000000000000000000000000000000000000000000000000000000000000000000000000000
:0200000490006A
:0400000000000005F7
:0200000490105A
:04000000BC90ACAF55
:0200000490303A
:02000000F50207
:0200000490501A
:0C00000000011E02806903011E12756BD6
:0200000490402A
:4000000000000000000000000000000000000000000000000000000000000000000000000000000000000000000000000000000000000000000000000000000000000000C0
:00000001FF
