:1000000002117E008F828E83E0540100000070F8A0
:100010002278FFE4F6D8FD0211DF900000EFF075C2
:100020003E00753F0075400075410075420090002C
:1000300000E0FFEF7003D38001C39200900000E066
:10004000FFEF700690000074FFF012200BD2AF900B
:1000500044F474FDF0753A007B017A007901C00325
:10006000C002C0017B007A0079368B488A49894AF0
:10007000900000E0FF8F4BD001D002D0037D2C7C9C
:1000800001120D288F3DE53D64107003020583E5E4
:100090003D64057003020583C3E5379407E5369494
:1000A00000400A900001E0FFEF64016006753A0429
:1000B0000201357E007F03AA06A9077B01121FCA31
:1000C0008E3E8F3FAE3EAF3F74052FF58274003EEB
:1000D000F583AF82AE83AA06A9077B01121FCA8EE1
:1000E0003B8F3CE53F2407FFE53E3400FED3EF9510
:1000F00037EE95364005753A03803AAE3EAF3F7411
:10010000072FF58274003EF583E0FFEF641760056A
:10011000753A0480207B017A007901E53F2404FDD3
:10012000E53E3400FC121AA7EF653C7003EE653B18
:100130006003753A08753800753900E53A600302C6
:100140000576900005E0FF8F35753A04900002E0D7
:10015000FFEF12085B01743101A03202063403087C
:100160003503113703693802293903CA3A055F3B61
:1001700000000573200003020576E53F453E60035D
:10018000020576753800753901120BA9EF70047FEE
:100190000180027F00900005EFF0753A00020576BD
:1001A000200003020576E53F6401453E6003020539
:1001B00076E535C394015042E53570169004B212CD
:1001C000083D1207C97B007A01790078001206F316
:1001D00080087F007E007D007C008E228F23AF236D
:1001E000900005EFF0E522FF7E00900006EFF09012
:1001F000000774FFF0900008E4F0753800753904CA
:10020000753A0002057630000BE53F6403453E6019
:10021000030205767540017541207E017F207D0037
:100220007B017A01792D1208D2200003020576C3E2
:10023000E53F9403E53E94005003020576E53F2434
:10024000FDFFE53E34FFFE7B017A007908C003C064
:1002500002C001AC40AD41742D2DF974013CFA7B14
:1002600001A801AC02AD03D001D002D0031209BA3B
:10027000E53F24FDFFE53E34FFFEEF2541F541EE6D
:100280003540F540753E01753F20E541653F7004FE
:10029000E540653E70667E007F06AA06A9077B01E1
:1002A000121FCA8E408F41E542702B7E017F207D58
:1002B000007B017A0279591208D27B017A027959BE
:1002C00090037F7401F0A37420F07DFF7C007F0019
:1002D000120E647542017B017A01792D90037FE54E
:1002E0003EF0A3E53FF0AD41AC40AF35120E64EFF8
:1002F00060047F0A80027F008F3A8003753A03759D
:100300004000754100020576754000754100020508
:1003100083E541253FFFE540353EFED3EF942CEECB
:100320009401503F753A00AE3EAF3F7B017A0079B1
:1003300005C003C002C001AC40AD41742D2DF9745D
:10034000013CFA7B01A801AC02AD03D001D002D080
:10035000031209BAE53F2541F541E53E3540F54038
:10036000020576753A03020576E53F453E600302D5
:1003700005767BFF7A247985C003C002C0017B002B
:100380007A007924A801AC02AD03D001D002D003D9
:100390007E007F081209BAD200753800753908AEA0
:1003A00038AF397B007A007924C003C002C0017BDA
:1003B000017A007905A801AC02AD03D001D002D0CA
:1003C000031209BA753A0002057620000302057689
:1003D000E53F6403453E60030205767E007F06AA82
:1003E00006A9077B01121FCA8E2C8F2DAE2CAF2DB4
:1003F0007C017D001208A5C004C005C006C007AF7F
:1004000035E4FCFDFE7B007A007901780012066875
:10041000A804A905AA06AB07D007D006D005D004CA
:1004200012064D8F318E308D2F8C2EAF31AE30AD08
:100430002FAC2EC004C005C006C0077F007E017D22
:10044000007C008F4A8E498D488C47D007D006D05B
:1004500005D004121B958F32AF35E4FCFDFE7B0006
:100460007A00790178001206687B087A00790078B2
:10047000001206F3EF2400FFEE3400FEED3408FD19
:10048000EC3400FCC004C005C006C007AE2CAF2D84
:100490007C007D201208A5A804A905AA06AB07D0F8
:1004A00007D006D005D00412064D8F318E308D2F27
:1004B0008C2E753300753400C3E5349420E53394F5
:1004C00000502FAE33AF34E4FCFDEF2531FFEE35A5
:1004D00030FEED352FFDEC352EFCA907AA06AB0545
:1004E000121FF3EF2532F5320534E534700205337F
:1004F00080C6E5357052AE2CAF2DE4FCFD7BFF7A53
:100500000079007800C3120792703DE52D30E004B9
:100510007F0080027F01900259EFF0900259E0FFC6
:100520007E00EF7F00FEC374D09FFF74FF9EFE8F9E
:10053000828E83E493FFC3E5329FF53290FFD1E4CE
:1005400093FFC3E5329FF532E532F4FFEF04FF90ED
:100550000005EFF0753A0075380075390180171203
:100560000BA9EF70069046FA7480F09046F674017D
:10057000F08010753A057C007D01AB39AA38AF3A9E
:1005800012108B30000302005522BB010689828ABB
:1005900083E0225002E722BBFE02E32289828A83A3
:1005A000E49322BB010689828A83F0225002F7225B
:1005B000BBFE01F322C5F0F8A3E028F0C5F0F8E592
:1005C00082158270021583E038F022BB010A89820D
:1005D0008A83E0F5F0A3E022500687F009E71922AC
:1005E000BBFE07E3F5F009E3192289828A83E493CD
:1005F000F5F074019322BB010789828A830205B555
:10060000500B09C5F027F7C5F01937F722BBFE0DCF
:1006100009F8E325F0F3C5F019E338F322F88982ED
:100620008A8374019325F0C5F0F8E4933822BB0166
:100630000A89828A83F0E5F0A3F0225006F709A721
:10064000F01922BBFE06F3E5F009F31922EF2BFFA8
:10065000EE3AFEED39FDEC38FC22C3EF9BFFEE9A3B
:10066000FEED99FDEC98FC22E88FF0A4CC8BF0A471
:100670002CFCE98EF0A42CFC8AF0EDA42CFCEA8E74
:10068000F0A4CDA8F08BF0A42DCC3825F0FDE98F97
:10069000F0A42CCD35F0FCEB8EF0A4FEA9F0EB8F8E
:1006A000F0A4CFC5F02ECD39FEE43CFCEAA42DCE5B
:1006B00035F0FDE43CFC2275F008758200EF2FFF59
:1006C000EE33FECD33CDCC33CCC58233C5829BED2A
:1006D0009AEC99E58298400CF582EE9BFEED9AFD2E
:1006E000EC99FC0FD5F0D6E4CEFBE4CDFAE4CCF9DE
:1006F000A88222B800C1B90059BA002DEC8BF08451
:10070000CFCECDFCE5F0CBF97818EF2FFFEE33FE1E
:10071000ED33FDEC33FCEB33FB10D703994004EBD6
:1007200099FB0FD8E5E4F9FA227818EF2FFFEE33A2
:10073000FEED33FDEC33FCC933C910D7059BE99AB4
:100740004007EC9BFCE99AF90FD8E0E4C9FAE4CC45
:10075000FB2275F010EF2FFFEE33FEED33FDCC33AF
:10076000CCC833C810D7079BEC9AE899400AED9B98
:10077000FDEC9AFCE899F80FD5F0DAE4CDFBE4CC77
:10078000FAE4C8F922EF4BFFEE4AFEED49FDEC48D2
:10079000FC22EB9FF5F0EA9E42F0E99D42F0E89CD6
:1007A00045F022E8600FECC313FCED13FDEE13FEE1
:1007B000EF13FFD8F122E8600FEFC333FFEE33FEF3
:1007C000ED33FDEC33FCD8F122BB010789828A832B
:1007D0000207E95005E9F80209E0BBFE05E9F80265
:1007E00009EC89828A830209F8E0FCA3E0FDA3E01A
:1007F000FEA3E0FF22E0F8A3E0F9A3E0FAA3E0FB08
:10080000227401FF3395E0FEFDFC080808E6CF2FB7
:10081000F618E6CE3EF618E6CD3DF618E6CC3CF6E8
:1008200022ECF0A3EDF0A3EEF0A3EFF022FAE6FB4A
:100830000808E6F925F0F618E6CA3AF622E0FBA326
:10084000E0FAA3E0F922EBF0A3EAF0A3E9F022E456
:1008500093FB740193FA740293F922D083D082F847
:10086000E4937012740193700DA3A393F874019331
:10087000F5828883E4737402936860EFA3A3A38076
:10088000DFE5092582F582E5083583F583B508049F
:100890008582092210AF06858209F5082285820922
:1008A000F508D2AF22EC8EF0A4CCC5F0CCCDF8EF99
:1008B000A4CEC5F02DFDE43CFCE8A42EC8C5F03D57
:1008C000FDE43CFCEFA4FFE5F028FEE43DFDE43C44
:1008D000FC22EF4E6012EF60010EEDBB010B89822E
:1008E0008A83F0A3DFFCDEFA2289F05007F709DFE4
:1008F000FCA9F022BBFEFCF309DFFCA9F022E7090A
:10090000F608DFFA8046E709F208DFFA803E8882BF
:100910008C83E709F0A3DFFA8032E309F608DFFAF7
:10092000806EE309F208DFFA806688828C83E3092F
:10093000F0A3DFFA805A89828A83E0A3F608DFFAFF
:10094000804E89828A83E0A3F208DFFA804280D257
:1009500080FA80C680D4805580F28029801080A6DD
:1009600080EA809A80A880DA80E280CA8029888420
:100970008C8589828A83E493A30586F0A30586DFAC
:10098000F5DEF3800B89828A83E493A3F608DFF90E
:10099000ECFAA9F0EDFB2288848C8589828A83E0B9
:1009A000A30586F0A30586DFF6DEF480E389828A5C
:1009B00083E493A3F208DFF980D688F0EF60010E9C
:1009C0004E60CD88F0ED2402B4040050C3F582EBF4
:1009D0002402B4040050B9232345822390094E73A6
:1009E000E6FC08E6FD08E6FE08E6FF22E2FC08E277
:1009F000FD08E2FE08E2FF22E493FC740193FD741B
:100A00000293FE740393FF227B007A4679E8121F5B
:100A1000F3EF4405FD7B007A4679E8121FFF752C41
:100A200000E52CC3940A503AAF2CEF75F005A424CE
:100A3000C7F582E43423F583AF82AE838E218F2203
:100A4000AE21AF228F828E8312084FAE21AF228F4C
:100A5000828E83740393FC740493FD121EC7052CCD
:100A600080BF752C00E52CC394015064AF2CEF754A
:100A7000F007A42479F582E43424F583AF82AE83B1
:100A80008E238F24AE23AF248F828E8312084F8B48
:100A9000258A268927AE23AF248F828E8374039301
:100AA000FE740493FF8E288F29AE23AF248F828E8D
:100AB00083740593F52A740693F52BAB25AA26A912
:100AC00027AD29AC28AF2BAE2A121E61052C8095CC
:100AD0007E207F4C121E057B017A507903121FF392
:100AE000EF4402FD7B017A507903121FFF7B017AEC
:100AF000507913121FF3EF4402FD7B017A507913F2
:100B0000121FFF9043A0E0FFEF4440FF9043A0EF8F
:100B1000F09043C2E0FFEF4410FF9043C2EFF07C3F
:100B2000207D3A7B007A5179007F0A7E00121E6197
:100B30007C207D447B007A5179627F087E00121E02
:100B4000619044F47401F0904322E0FFEF4408FF09
:100B5000904322EFF09046ECE0FFEFC3940550067F
:100B6000904689743AF090480074F1F0120F839027
:100B7000480074B1F0121D3B7B007A4379A0C0039A
:100B8000C002C0017B007A4379B09000051208468C
:100B9000D001D002D0037F0E7E00121D719043B0B1
:100BA000E0FFEF54FDFFEFF02290FFC7E493FE74E7
:100BB0000193FFEF2401FFEE3400FEEF7F00FE9073
:100BC000FFCBE493FC740193FDEF2DFFEE3CFEE4BC
:100BD000FCFD8F4A8E498D488C47C201754B0090B1
:100BE000FFC7E493FE740193FFEF2401FFEE34008E
:100BF000FEEF7F00FEE4FCFD8F468E458D448C4366
:100C0000AF4AAE49AD48AC47AB46AA45A944A84354
:100C1000C31207925040AF46AE45AD44AC438F82FD
:100C20008E83E493FF8F4CE54C6008E54C64FF60D5
:100C300002D201E54C254BF54BAF46AE45AD44AC79
:100C4000437B017A007900780012064D8F468E456D
:100C50008D448C4380AA90FFC7E493FE740193FFF8
:100C6000EF2401FFEE3400FEEF7F00FEEF7803CEAD
:100C7000C313CE13D8F9FFE4FCFD8F468E458D4497
:100C80008C437FC07EFF7D007C00AB4AAA49A94807
:100C9000A847C3120792700A7F007E207D007C0067
:100CA000800DAF4AAE49AD48AC4778031207A38F19
:100CB0004A8E498D488C47AF4AAE49AD48AC47ABE8
:100CC00046AA45A944A843C3120792503FE54624CB
:100CD00000FFE5453400FEE5443408FDE5433400FB
:100CE000FCA907AA06AB05121FF3EF254BF54BAF86
:100CF00046AE45AD44AC437B017A007900780012E2
:100D0000064D8F468E458D448C4380ABE54BF4FFFA
:100D1000EF04F54B90FFC0E493FFE54BB5070320CC
:100D200001037F06227F00228B438A4489458C463B
:100D30008D47755405754C00754D00AF4B7E0AEF1D
:100D40008EF0A4FFAEF0C3E54D9FE54C9E504212DD
:100D500017F0EF60271217F07E008E528F537F1925
:100D60007E007D007C0012185F1217F07E00D3EF2A
:100D70009553EE955250DE75540080157F017E002C
:100D80007D007C0012185F054DE54D7002054C801A
:100D9000AAAB48AA49A94AE475F00012062E754E7E
:100DA00000754F001217F0EFD394005003020E614C
:100DB0001217F07E008E508F51AB48AA49A94AE520
:100DC000508551F01205F6AB48AA49A94A1205CB45
:100DD000FFAEF0C3EF9547EE9546506A754C00752F
:100DE0004D00C3E54D9551E54C95505029121670B4
:100DF000AB43AA44A945AC4EAD4FE92DF9EA3CFA04
:100E0000EF1205A3054FE54F7002054E054DE54D68
:100E10007002054C80CCAB43AA44A945E54F24FFA2
:100E2000FFE54E34FFFEE92FF9EA3EFA12058AFF8C
:100E3000EF64177003020DA47F057E007D007C0027
:100E400012185F020DA4AB48AA49A94A1205CBFFAC
:100E5000AEF0C3EF9551FFEE9550FEEE8FF0120607
:100E60002EAF5422900379EFF090037AECF0A3EDCB
:100E7000F090037C120846121DD6EF6003020F7734
:100E8000900379E0FF90037C12083D90037FE0FC23
:100E9000A3E0FD900386ECF0A3EDF01213FB9003AA
:100EA00081EFF0900381E0FFEF64076003020F72AF
:100EB000904722E0FFEF5402FF7E00EF4E70097F63
:100EC000017E00121E3480E8904722E0FFEF5402BA
:100ED000FF7E00EF4E600D904722E0FFEF131354AA
:100EE0003FFF80027FFFEF7007900381E4F08006F0
:100EF00090038174FFF0900381E0FFEF7074900322
:100F000079E0FF90037AE0FCA3E0FD900590E0FB20
:100F1000900591E0FE900386EEF012154390038158
:100F2000EFF0900381E0FFEF64077046904722E006
:100F3000FFEF5402FF7E00EF4E70097F017E00122A
:100F40001E3480E8904722E0FFEF5402FF7E00EF5E
:100F50004E600D904722E0FFEF1313543FFF8002D5
:100F60007FFFEF7007900381E4F0800690038174A7
:100F7000FFF0121F3F80069003817404F0900381FC
:100F8000E0FF227B007A4079807D037C00121FD72E
:100F9000904082741BF07B007A4079847D337C0022
:100FA000121FD79040867418F09043007402F0909E
:100FB00040007408F09042007403F07B0C7A0179D1
:100FC00008121FF39046A1EFF07B007A4279227D50
:100FD000087C00121FD77B007A4279207D517C105B
:100FE000121FD7900004E4F07F197E007D007C0082
:100FF0009000001208219000001207E9D3EF94003E
:10100000EE9400404E900004E0FFEF6403604490D3
:101010004225E0FFEF5401FF7E00900004E0FEEE69
:1010200025E0FEEE4FFFEF5403FF900004EFF07F4A
:10103000E07E017D007C00121D009000001207E997
:101040007BFF7AFF79FF78FF12064D9000001208AF
:101050002180A37B007A4079047D007C01121FD798
:101060009040047407F0904006E4F0904008744803
:10107000F0904004E4F09040017402F09043A2E04C
:10108000FFEF4403FF9043A2EFF0228F438C448D87
:10109000458A468B47AE44AF458F828E837401F0FC
:1010A000AE44AF458F828E83A3E543F0AF47AC4497
:1010B000AD458D828C83A3A3EFF0E546FF7E00ACA7
:1010C00044AD458D828C83A3A3A3EFF0AE44AF451E
:1010D000AA06A9077B01E5472404FDE5463400FC88
:1010E000121AA78E488F49AF49E5472404FDE5460B
:1010F0003400FCAA44AB458B828A83E5822DF582BD
:10110000E5833CF583EFF0E548FF7E00E5472405E5
:10111000FDE5463400FCAA44AB458B828A83E58218
:101120002DF582E5833CF583EFF0E5472406FFE5E6
:10113000463400FEAC44AD458D828C83E5822FF5AC
:1011400082E5833EF5837417F0AE44AF45AA06A945
:10115000077B01C003C002C001E5472407FDE54647
:101160003400FC7B007A0079468B4F8A5089517598
:101170005296D001D002D003121B477E00227593F5
:101180000078007583467582E8E04401F0009046DF
:10119000ECE0F99046FAE0FAB903225420B40012C8
:1011A000B8001AEA901FFFF07401901FFEF09046FD
:1011B000F6F0901FFEE06005901FFFE0FA904800F7
:1011C00074C0F0758154121DA5900000780079203C
:1011D000E4F0A3D8FCD9FAEA900588F00200117572
:1011E000081F7509FD120A08021226022015E49351
:1011F000A3F8E493A34003F68001F208DFF480290A
:10120000E493A3F85407240CC8C333C4540F4420F8
:10121000C8834004F456800146F6DFE4800B0102E7
:10122000040810204080901AF7E47E019360BCA36C
:10123000FF543F30E509541FFEE493A360010ECF35
:1012400054C025E060A840B8E493A3FAE493A3F85F
:10125000E493A3C8C582C8CAC583CAF0A3C8C5821F
:10126000C8CAC583CADFE9DEE780BEC0E0C083C06C
:1012700082C085C084C086758600C093759300C007
:10128000D075D000C006C00790038CE4F0A2AFE494
:1012900033FF90038DEFF0D2AF9044F474FDF090E3
:1012A0006464E0FF90038BEFF090038BE0FFEF307E
:1012B000E568906443E0FF90053BE0FE74BA2EF5CC
:1012C00082E43404F583EFF090038C7401F0900312
:1012D0008CE0FFEF60389004B8E0FFEF6006900408
:1012E000B77401F090053BE004F090053BE0FFEFA0
:1012F000C39440400590053BE4F09004B9E0FF90B2
:10130000053BE0FEEEB507069004B87401F090646A
:1013100064E0FF90038BEFF0808F90038DE0FFEF90
:1013200024FF92AFD007D006D0D0D093D086D084FF
:10133000D085D082D083D0E032900379EFF0900551
:101340003CE0FF90037AEFF09004FAE0FF90037B1B
:10135000EFF090037BE0FF90037AE0FEEEC39F5036
:101360002690037BE0FF7E00EF24FFFFEE34FFFEBC
:1013700090037AE0FD7C00EFB50508EEB504047F2C
:101380000180027F00801890037BE0FF90037AE0E9
:10139000FEC3EE9FFFEFB43F047F0180027F00EFAA
:1013A000709C90037AE0FF90037BE0FEEEB507149B
:1013B000906465E0FFEF20E20B900379E0FF90641A
:1013C00045EFF02290037AE0FFEFC3944040059090
:1013D000037AE4F0900379E0FF90037AE0FE74FB77
:1013E0002EF582E43404F583EFF090037AE004F004
:1013F00090037AE0FF90053CEFF022900382EFF03B
:101400009003831208469003887407F0904722E007
:10141000FFEF5402FF7E00EF4E607B90472074B6D2
:10142000F090472074D5F09047207402F090472246
:10143000E0FFEF5402FF7E00EF4E7052900382E017
:10144000FF904720EFF0900389E4F0A3E4F09003CD
:1014500086E0FEA3E0FF900389E0FCA3E0FDC3ED7E
:101460009FEC9E503790038312083D900389E0FE65
:10147000A3E0FFE92FF9EA3EFA12058AFF90472020
:10148000EFF0900389E475F0011205B580C0900378
:10149000887409F080069003887404F0900388E053
:1014A000FF227F007E007D007C00C004C005C006D6
:1014B000C0079004B212083D1207C98F4A8E498DA9
:1014C000488C47D007D006D005D004121B958F2139
:1014D00090038F12083D12058AFFC3E5219FF52175
:1014E000E521F4FFEF04F52190038F12083D12056A
:1014F0008AFFE521B507219004B212083D1207C901
:10150000EC4D4E4F6012121EA9EF700C7B017A0356
:1015100079921219EEEF60057F00121F6A120BA973
:10152000EF700D9046FAE0FFEF54C0FFEFB4400AB1
:101530009046FAE4F07F0012001A7FC812001A12D7
:101540001FE622900382EFF0900383ECF0A3EDF00E
:10155000900385EBF09003877407F0904722E0FF3B
:10156000EF5402FF7E00EF4E606790472074B6F0A4
:1015700090472074D8F09047207405F0904722E0FF
:10158000FFEF5402FF7E00EF4E703E900382E0FFBB
:10159000904720EFF0900383E0FEA3E0FFEEFF7E94
:1015A00000904720EFF0900383E0FEA3E0FF904718
:1015B00020EFF0900385E0FF904720EFF090038646
:1015C000E0FF904720EFF0800E9003877409F080D1
:1015D000069003877404F0900387E0FF22C0E0C008
:1015E00083C082C085C084C086758600C093759311
:1015F00000C0D075D000C006C007A2AFE433FF9092
:10160000038EEFF0D2AF9044F474FDF090053CE00F
:10161000FF9004FAE0FEEE6F6037906465E0FFEF44
:1016200020E22E9004FAE0FFEFC3944040059004BE
:10163000FAE4F09004FAE0FF74FB2FF582E434043E
:10164000F583E0FF906445EFF09004FAE004F08049
:10165000BB90038EE0FFEF24FF92AFD007D006D0FF
:10166000D0D093D086D084D085D082D083D0E032C1
:101670001220259004B9E0FF90037AEFF090053B2B
:10168000E0FF90037BEFF09004B8E0FFEF700E9066
:10169000037BE0FF90037AE0FEEE6F604590037AF3
:1016A000E0FF74BA2FF582E43404F583E0FF900381
:1016B00079EFF090037AE004F090037AE0FFEFC353
:1016C0009440400590037AE4F090037AE0FF9004A0
:1016D000B9EFF09004B8E0FFEF60119004B8E4F0C7
:1016E000800A906443E0FF900379EFF012201E908F
:1016F0000379E0FF22900379EFF090037AECF0A3F6
:10170000EDF0900379E0FFEFD3941F5003D38001F5
:10171000C340057F00121F6A900379E0FFEF541F5A
:10172000FF7E00EF25E0FFEE33FEEF2400FFEE34F6
:1017300044FEAA06A9077B01121FCA90037CEEF0A3
:10174000A3EFF0900379E0FF7E02EF8EF0A4FFAEEE
:10175000F0EF2400FFEE3444FEAA06A9077B0190B7
:10176000037AE0FEA3E0FFAD07AC06121FD9900399
:101770007CE0FEA3E0FF22904F00E0FFEF4402FF79
:10178000EFF0904F02E0FFEF548FFF900000EFF07A
:10179000900000E0FFEF4410FF904F02EFF0904FF9
:1017A0000BE0FFEF54CFFFEFF0904F0BE0FFEF4463
:1017B00030FFEFF0904F0BE0FFEF54F0FFEFF090B1
:1017C0004F0BE0FFEF440FFFEFF07FFF121EE07FB3
:1017D0007F121EF87F00121FA99043A3E0FFEF4481
:1017E00001FFEFF0904F01E0FFEF4401FFEFF02227
:1017F00012202590053BE0FF9004B9E0FEEEB5070E
:101800001A9004B8E0FFEFD3940040089003797475
:1018100040F08042900379E4F0803B90053BE0FF8C
:101820009004B9E0FEEEC39F50159004B9E0FF901C
:10183000053BE0FEC3EE9FFF900379EFF080179029
:1018400004B9E0FFC374409FFF90053BE0FEEF2E1C
:10185000FF900379EFF012201E900379E0FF2290B1
:10186000FFFC12088112082185088385098212076E
:10187000E9D3EF9400EE9480402F9005891207E998
:10188000121D00850883850982C083C0821207E982
:10189000EF2400FFEE3480FEED34FFFDEC34FFFC5E
:1018A000D082D08312082180BF90057F1207E9857E
:1018B00008838509821207F5120668121D00900040
:1018C0000412088122121CD490000174FFF0121D32
:1018D000D6EF704A7F01121A4CEF6407703B7B0110
:1018E0007A0579907D0212192AEFB4021D90000149
:1018F000E4F0904722E0FFEF5402FF7E00EF4E70CD
:10190000187F017E00121E3480E8904722E0FFEF2E
:101910005402FF7E00EF4E60C5121F3F800690000C
:10192000017404F0900001E0FF22900002120846CA
:10193000900005EDF0900006E4F0900005E0FF90C7
:101940000006E0FEEEC39F5040904722E0FFEF54B8
:1019500001FF7E00EF4E6003D38001C340097F0189
:101960007E00121E3480E2904720E0FF90000212B9
:10197000083D900006E0FEE92EF9E43AFAEF120580
:10198000A3900006E004F080B1900006E0FF2290F2
:101990000379EFF090037AEDF090037AE0FFEFD354
:1019A00094075003D38001C340057F00121F6A9043
:1019B0000379E0FFEFD3941F5003D38001C34005A8
:1019C0007F00121F6A90037AE0FFEF5407FF7E004A
:1019D000EF75F020A4FFAEF0900379E0FEEE541F07
:1019E000FE74802EF582E43444F583EFF0229000FB
:1019F00000120846900003E4F0121CD47B007A0029
:101A00007900C003C002C00190000012083DD082DE
:101A1000D083D0E06B7008E965827003EA6583705B
:101A2000089000037401F0801D121DD6EF6008902D
:101A300000037404F0800F90000012083D90058DA3
:101A4000120846121F3F900003E0FF22900002EFB1
:101A5000F09000037407F0904722E0FFEF5402FF7C
:101A60007E00EF4E603590472074B6F090472074AA
:101A7000E1F0904720740EF0904722E0FFEF54020F
:101A8000FF7E00EF4E700C900002E0FF904720EFC9
:101A9000F0800E9000037409F08006900003740437
:101AA000F0900003E0FF228B4A8A4B894C8C4D8DCD
:101AB0004E754F00755000E54E154EAE4D70021537
:101AC0004DFFD3EF9400EE9400401B784AE475F08C
:101AD0000112082D12058AFF7E00EF2550F550EE09
:101AE000354FF54F80D1E550F4FFE54FF4FEEF247C
:101AF00001FFEE3400FE2243038FFF24804304B233
:101B0000FF24814105920043058D000000440584B7
:101B1000016E360044057F00005DC0410583184416
:101B200005892EE000004104B6004104FA00410599
:101B30003C004104B90041053B004104B8004104A8
:101B4000B70041059300008B4A8A4B894C8C4D8D20
:101B50004E755300755400121C1DAB4AAA4BA94C7C
:101B6000AE53AF54E92FF9EA3EFA12058AFF121379
:101B7000390554E55470020553C3E554954EE553B9
:101B8000954D40D6AB4FAA50A951E54D854EF01268
:101B9000062E7F00228F468E458D448C43754B0068
:101BA000784774FF1208037B007A0079007800C33D
:101BB0001207925024AA49AB4AAF46AE45AD44AC99
:101BC000438F828E83E5822BF582E5833AF583E4A9
:101BD00093FFEF254BF54B80C7AF4B22121F94901C
:101BE0000379EFF0906490E0FFEF4420FFEFF09076
:101BF0006494E0FFEF4410FFEFF09044C07401F0F4
:101C0000906495E0FFEF4410FFEFF09044C0740241
:101C1000F0121F28900379E0FF121F1022121F9468
:101C2000900379EFF0906493E0FFEF4401FFEFF051
:101C3000906493E0FFEF54FEFFEFF0900379E0FF34
:101C4000121F101220259004B9E4F090053BE4F037
:101C50009004B8E4F09004B7E4F012201E227C1245
:101C60007D6B7F001216F57D077F0012198F90643F
:101C7000807472F09064847420F07C157DDD7F01A7
:101C80001216F57D077F0112198F9064247407F0F6
:101C90009064347448F09064857402F022121F94AA
:101CA000900379EFF0906495E0FFEF4401FFEFF0CF
:101CB000906495E0FFEF54FEFFEFF0900379E0FFB2
:101CC000121F101220339004FAE4F090053CE4F067
:101CD00012202C22121F94900004EFF09043A0E0F9
:101CE000FFEF4408FFEFF09043B0E0FFEF4408FF40
:0B1CF000EFF0900004E0FF121F102234
:101D0000EC4D4E700D78FCEF24E950032840FD2285
:101D100000007BF178DA0000EF28FF78FFEE38FE54
:101D2000ED38FDEC38FC50E7EF2BFFEE38FEED38D8
:101D3000FDEC38FC40F222050203047B0C7A0179A9
:101D4000CF121FF3900000EFF0900000E0FFEF547F
:101D500007FF90586EEFF0900000E0FFEFC4540FC3
:101D6000FFEF540FFF90586FEFF09058767444F0E7
:101D700022758600EF4E6027EF60010E759300908C
:101D80000005E0F595A3E0F585A3E0F5848B938A43
:101D9000838982E0A30586F0A31586DFF6DEF4E4EE
:101DA000F593F595229046FAE0FFEF54C0FFEFB4AB
:101DB00080239046FAE4F090FFC3E493FE7401930D
:101DC000FFEF4E601090FFC3E493FE740193FFE4B5
:101DD000FCFD121FB9229003827404F0121F94902C
:101DE0000383EFF0900593E0FFEF700B9005937481
:101DF00001F0900382E4F0900383E0FF121F109043
:101E00000382E0FF22ACEAADA08E838F82E493F9D7
:101E1000601CA3E493F5EAA3E493F5A0A3E4936024
:101E2000F1FAA3E493F8A3E493F2DAF6D9E48DA0EF
:031E30008CEA2217
:101E3400EEFA900583E0F88FF0A4FFAEF0E88AF0A4
:101E4400A42EFEE5F03400FDEF24C9FF78FFEE3840
:101E5400FEED38FDE438FC5003021D0022758600B7
:101E6400EF4E601BEF60010E8C838D828B958A850B
:101E74008984E493A30586F0A31586DFF5DEF3E4F5
:101E8400F595229043A3E0FFEF4401FFEFF0904368
:101E9400B3E0FFEF4401FFEFF0904F00E0FFEF44A9
:101EA40001FFEFF0221218C5900000EFF09000003F
:101EB400E0FFEF70081218C5900000EFF0900000EA
:101EC400E0FF22EC4D6011ED60010C8B938A838955
:101ED40082E4F0A3DDFCDCFA75930022900001EFAC
:101EE400F07B027A4F7904900001E0FFEFFD7C0063
:101EF400121FD922900001EFF07B027A4F790690ED
:101F04000001E0FFEFFD7C00121FD922EF540160B5
:101F140004D2AF8002C2AFEF5402FF9044F4E05405
:101F2400FD4FF0229043A2E0FFEF4402FFEFF09058
:101F340043B2E0FFEF4402FFEFF022121F9490033C
:101F440082EFF0900593E4F0900382E0FF121F10FB
:101F540022900592E0FFEF700912177790059274B2
:101F640001F0121E872290FFFF120881EFF09046C5
:101F7400EA7401F0900001120881229004B6E0FF97
:101F8400EF7009121C5E9004B67401F0121BDC227F
:101F94009044F4E0F84402F0E85402FF10AF012248
:101FA40074014FFF22900001EFF0900001E0FF90D8
:101FB4004F03EFF022900588E0FA8E838F8274003D
:101FC400758101738B938A838982E0FFA3E0FE7598
:101FD4009300228B938A838982EDF0A3ECF07593AE
:101FE40000229046FA7480F09046F67401F0228B39
:101FF400938A838982E0759300FF228B938A838975
:1020040082EDF075930022121F7F121C1D121C9D7D
:1020140022121F551214A280FE229044C07401F0B3
:10202400229044C87401F0229044C07402F02290BB
:1020340044C87402F02202000102020002000000FF
:10204400000404000400000018004F010A4B005271
:102054000300020102040100640380728438850FC6
:102064000100440102041A05060604080109180CBB
:10207400060D040E18101811101308141A15011661
:10208400041706181E19071E041F01201021082317
:102094001024082518280129072C012D062F0130AA
:1020A4000231183307341C36013A203E01560257D8
:1020B40013580459045B045C115D105F0185098D9C
:1020C400038E078F0490029103930C950397049A4F
:1020D40003A205A806AF0EB407B70FB802BA20BB17
:1020E40080BE01D804D904DC11DF010101330024CE
:1020F4000206058009010A250D211082111013041E
:1021040016081702180419411A011D201E88208080
:10211400210422012540270229122A042B022D80A2
:102124003148321136043702388839103A013C08F4
:102134003E083F8059016812691070D4730480040A
:10214400810882428302C087C25FC45FCA1FCCCFAA
:10215400CE5FD60101021408140C090E10160318E0
:102164000C19011A112210281C2A022C102E0C32D0
:102174001F33013A203F04580459045C015F0101F4
:10218400034300A4010202010580060408010908B2
:102194000A480D200E2011101202130815421608C9
:1021A400180119011A081C041D101E24210A2218E2
:1021B400230827202801291631403214330235041C
:1021C400361838A83A0140014104420449404A0AF9
:1021D40050805310832090A8911892409502962421
:1021E40099409A089D92A050A160A404A508A74014
:1021F400A814A901AA01AE40C0CFC26EC4D7CA0FA9
:10220400CC2FCE0FD00ED20C0104590104020104CC
:1022140002070809040B010D010E040F0212081332
:10222400071608180619011B061F082C063001346E
:102234000835073606370838803B203E503F40407B
:102244000146014750482449FF4A074BFF4C404D83
:10225400204EF04F05500854185604580459045A97
:10226400045B045C115D115F01604061A86240631E
:1022740020810287018F0193019C01A002A901AD75
:1022840001B101B201B402B702BE14BF01C053C10F
:1022940002C5E0C60CC70BC816C9FFCAFFCBFFCEE8
:1022A400F0CF44D00CD401D604D804D904DA04DB2A
:1022B40004DC10DD11DF01E6C0EA40EB0201054158
:1022C40000080182030109220B280D400F0211C0EE
:1022D400150119101A011B021D081E0820082110DF
:1022E400228027812D402F04308031203301370193
:1022F400396A3C083F82420145284D415141560408
:1023040057C059015C205D015E085F8061106281E5
:10231400674087408E0191089320954299039D80E0
:102324009E04A080A162A404A742AD02C00DC28E87
:10233400C411CA30CC8DCEDFD068D210D6F1D88D7E
:10234400E640010702A820AB80011701E81001193B
:1023540001E81001400331203640CC3001410B0329
:10236400805F808380A180A520A640AD80C010D668
:1023740020E280EE4001420A618086408D20A180E7
:10238400A520A640AF80D640E640EC1001430218D9
:1023940010C6100144025004D404014501940801FC
:1023A400460194080147019408014801B410014C06
:1023B40002B404E808015003000208020A020151B1
:1023C40001000F004F00000C00511000500051C0DC
:1023D40000100051F0001001000002800103000D04
:1023E4000001140008000140000A00014C00020032
:1023F400015000002005022800030C00001C04000A
:10240400001208280000000310030300000B1C54F2
:10241400C3000000630011000000F3030C1CFF0064
:1024240000001F03A00380000F1C7C60000002005A
:102434002800004000650203000100EC000CFFFFCF
:10244400FF62A0F0410C000000000000000404043E
:1024540000110100010000000000004002001030E3
:102464001000101012000000000000000000000026
:10247400000000000001028023F9008000FFFFFF3C
:09248400FF6980021E0300010142
:00000001FF
