:1000000000100020ED030000E5030000E503000000
:10001000F8B51148114A1AE055689368D4689D42B2
:1000200009D0002104E06E1877683668C0C3083133
:10003000A142F8D100E01B191469002103E000255A
:10004000002660C30831A142F9D1143201380028DA
:10005000E2D101F051FBC04601000000A0180000F1
:1000600080B584B000AF021CFB1D1A70224A3B1CF5
:100070000E3312781A70214A3B1C0F3312781A7013
:100080001F4B1B68013BBB601AE01E4B1868BA6827
:10009000391C0E31131C5B009B181B1801331B7895
:1000A0000B70184B1868BA68391C0F31131C5B00B1
:1000B0009B181B1802331B780B70BB68013BBB609D
:1000C000BB68002B0ADB0F4B1968BA68131C5B0076
:1000D0009B185B5CFA1D12789A42D6D90A4B3A1CDF
:1000E0000E3212781A60094B3A1C0F3212781A60DD
:1000F000BD4604B080BDC046CCF1FF0FCDF1FF0F6F
:1001000078180000FC0000201CFF0B4020FF0B4073
:1001100080B500AF1C4A1C4B19688023DB020B43DF
:1001200013601820FFF79CFF184B19221A60052056
:1001300001F012F9164B174A1278D2B21A60052054
:1001400001F0CAF9104B104A1168134A0A401A60AC
:10015000124B20221A60124B10221A60114B3022CF
:100160001A60114A80231B061360104A80231B0665
:1001700013600F4B0F4A1A600F4B104A1A60104B56
:10018000EF221A60BD4680BD00010B402CFF0B40E2
:1001900028FF0B40E5F1FF0FFFFFFBFF14020240B9
:1001A000180202402002024008010B4004010B40EB
:1001B000000002400B00008040000240170000C019
:1001C0008000024080B582B000AF72B6FB1C0022F6
:1001D0001A7024E0FB1C1A78131C5B009B185B0050
:1001E0001A1C3E4BD3187B607B681A785978090239
:1001F0000A43997809040A43DB781B0613431A1C47
:100200007B6819795B791B020B439BB2101C191C8C
:1002100001F076F9FB1CFA1C127801321A70FB1CF3
:100220001B78012BD6D92E4A2E4B101C191C01F01D
:1002300077F92D4AC0239B0013602C4AC0239B04EE
:1002400013602B4AEE231B0213602A4B04221A6010
:10025000294AC0235B001360284B7E221A60284A7B
:10026000C0235B031360274B3E221A60264AD82323
:100270001B011360254B04221A60254B04221A60CF
:10028000244A99231B041360234A99231B041360F7
:10029000224A80239B051360214A99231B04136083
:1002A000204A80239B0513601F4B204A1A60204B75
:1002B0001F4A1278D1B202220A43D2B21A701C4BE2
:1002C0001B4A1278D1B206220A43D2B21A70FFF743
:1002D0001FFF01F065F9BD4602B080BD1018000097
:1002E0001C18000038180000000001400400014004
:1002F0000C000140000004400800044000010440DC
:1003000008010440180104400803044000040440AC
:100310001804044000500F4010500F4018500F4078
:1003200030500F4038500F402001054010000100B0
:1003300000700F4000B5034B1A78002A01D101204C
:10034000187000BD0001002008B504480368002BA8
:1003500003D0034B002B00D0984708BDC8000020F5
:100360000000000080B582B000AF3A1D01235B425F
:100370001380BA1D01235B42138062B600F072FF46
:1003800000F036FF00F0D8F800F074FB02E0C04641
:1003900000E0C04600F06CFC00F06CF900F096F94B
:1003A000031C002BFAD1002000F0AEFD031C1A1C28
:1003B0003B1D1A803B1D1A88094B9A42E7D03A1D13
:1003C000BB1D12881B889A42E3D03B1D1B88181C5A
:1003D00000F02EFFBB1D3A1D12881A80DAE7C046D6
:1003E000FFFF000080B500AFFEE7C046014B9D4611
:1003F000014B1847001000201100000080B582B0AA
:1004000000AF00237B600FE079687B68032B04D882
:100410007A680D4B9200D35800E00C4B0C4A8900CF
:100420008B507B6801337B607B682F2BECD9FFF707
:10043000C9FE084B00221A608023DB0501221A60E6
:10044000BD4602B080BDC04600000000E5030000CC
:1004500000000020C000002080B500AF1B4B1B78BF
:10046000013B9BB2181C002100F024FF184B1B78A5
:10047000013B9BB2181C002100F052FF00F03AF93A
:10048000144B154A1A60154A80239B001360002004
:1004900000F096FA124B124A1168124A0A401A608A
:1004A0000F4A0F4B1968C023DB000B4313600F206A
:1004B00000F0F2FF0C4B0F20191C00F05DFF0F2025
:1004C000032100F07FFFBD4680BDC046E400002050
:1004D000E5000020040008400028A00108000840B2
:1004E00010000140FFF0FFFFD910000080B500AF01
:1004F00000F0C6FE00F0FAFE0E4A0E4B196880238B
:100500001B060B4313600B4A0A4B196880231B031D
:100510000B431360642000F0DFFF064A054B1968A7
:1005200080235B010B4313600F2000F09FFFBD464B
:1005300080BDC0460400084080B500AF094B1B7861
:10054000002B04D1FFF788FF064B01221A70FFF73A
:10055000CDFF054A044B19688023DB030B4313606E
:10056000BD4680BD040100200400084080B584B071
:1005700000AF021CFB1D1A70FB1DFA1D1278013220
:100580001A70FB1D1B78052B1BD03B1C0E33FA1D6C
:100590001278D2081A70FB1D1A7807231340012223
:1005A0009A403B1C0F331A703B1C0E331B78084AD1
:1005B000D25C3B1C0F331B781340DBB2002BDBD02B
:1005C00000E0C046FB1D1B78181CBD4604B080BD72
:1005D000CC00002080B584B000AF021CFB1D1A7057
:1005E000114B1B68FB60FB68FF229343FB60FB1D04
:1005F0001B780E4AD35CFA681343FB600A4BFA6817
:100600001A600B4B1B78013B9BB2181C002100F0B9
:1006100051FE084B1B78013B9BB2181C002100F0D7
:100620007FFEBD4604B080BD08000840A41700004E
:10063000E4000020E500002080B582B000AF021C7D
:10064000FB1D1A70094B00221A70094BFA1D127813
:100650001A70064A7F235B421370FB1D1B78181C1F
:1006600000F02EF9BD4602B080BDC0460501002055
:100670000601002080B500AF124B00221A70124A0A
:1006800001235B421370104B1B78DBB2181CFFF781
:100690006DFF031C1A1C0C4B1A700B4B1B78DBB242
:1006A000042B0DD8074B1B78DAB201231343DAB2BF
:1006B000044B1A70044B1B78DBB2181C00F000F9D5
:1006C000BD4680BD050100200601002080B500AFB9
:1006D000074B1B78DBB21A1C01231340DBB2002B43
:1006E00001D0012300E00023181CBD4680BDC04698
:1006F0000501002080B582B000AFFB1D00221A70FA
:1007000009E0FB1D1B78181C00F068F8FB1DFA1DA2
:10071000127801321A70FB1D1B78042BF1D9BD46EB
:1007200002B080BD90B587B000AF021CFB1D1A70EF
:10073000FB1D1B78254AD35C3B61FB1D1B78244ABB
:10074000D35C3A1C1632191C4900CB181370FB1DE0
:100750001B781F4AD25C3B1C173392001A703A690F
:100760001C4B9200D3581B68FB603B1C17331B7853
:100770000F22111C99400B1CDB43FA681340FB60ED
:100780003B1C17331B780422141C9C40231CFA6862
:100790001343FB603A69104B9200D35839690E4AF3
:1007A00089008A5811683A1C163212780720041CF6
:1007B0009440221CD2430A401A603A69054B9200C9
:1007C000D358FA681A60BD4607B090BD8017000084
:1007D0009C170000C0170000D017000090B587B02C
:1007E00000AF021CFB1D1A70FB1D1B782F4AD35C47
:1007F000BB60FB1D1B782E4AD25C3B1C0F33920062
:100800001A70FB1D1B782A4AD35C3A1C1732191C3C
:100810004900CB181370BA68264B9200D358B968B8
:10082000244A89008A5811683A1C0F3212780F2026
:10083000041C9440221CD2430A401A60BA681E4B22
:100840009200D3581B683B613B1C17331B7807226F
:10085000111C99400B1CDB433A6913403B613B1C64
:1008600017331B780622141C9C40231C3A6913433F
:100870003B61BA68104B9200D3583A691A60BA6863
:100880000E4B9200D358B9680C4A89008A581168F7
:10089000FA1D12780648825C0120041C9440221C38
:1008A000D2430A401A60BD4607B090BD80170000D1
:1008B0009C170000C0170000D0170000E0170000D0
:1008C00080B584B000AF021CFB1D1A7000F04DFD16
:1008D000031C1A1C3B1C0B331A70FB1D1A783B1CA3
:1008E0000A3324498A5C1A70FB1D1B78181CFFF719
:1008F00071FEFB1D1B78181CFFF714FF1E4B1B68B5
:10090000FB60FA681D4B1340FB60FA68A0231B02D2
:100910001343FB60184BFA681A60642000F0DCFD9A
:10092000154B1B68FB60FA68144B1340FB60FA68B8
:10093000134B1343FB60104BFA681A6000F0AEFCD7
:1009400000F0E2FC00F09CFC00F0D0FC0A2000F07B
:10095000C3FD0C4B3A1C0A3211780B4A89008A58A5
:100960001A603B1C0B331B78181C00F002FDBD46BF
:1009700004B080BDB817000004000840FF3FDFFF4F
:10098000002020000C000840B417000080B582B0A1
:1009900000AF021CFB1D1A70FB1D1A78064B1B686A
:1009A00099B2064B5200D152FB1D1B78181CFFF761
:1009B00015FFBD4602B080BD0C00084008010020B4
:1009C00080B582B000AF7860094B094A1168094AC6
:1009D0000A401A607A68032313407B60044B044A80
:1009E00011687A6852020A431A60BD4602B080BD9F
:1009F00004000840FFF9FFFF80B582B000AF021C81
:100A0000FB1D1A70FB1D1A78FB1D1978094B490054
:100A1000C95A094B5200D152FB1D1B78074A0021CD
:100A2000D154FB1D1B78064A0021D154BD4602B0AB
:100A300080BDC046080100202801002034010020AC
:100A40003C01002080B582B000AF021CFB1D1A7073
:100A5000FB1D1B78181CFFF7EFFDFFF737FE031C8B
:100A6000002BFAD1FB1D1B78181CFFF7C5FFBD46F4
:100A700002B080BD80B582B000AFFB1D00221A70AD
:100A800009E0FB1D1B78181CFFF7DCFFFB1DFA1D9E
:100A9000127801321A70FB1D1B78042BF1D9BD4668
:100AA00002B080BD80B586B000AF021CFB1D1A707D
:100AB000FB1D1A783B1C163366498A5C1A703B1C76
:100AC00016331A783B1C173363498A5C1A70FB1D76
:100AD00019783B1C1433614A49008A5A1A80FB1D5D
:100AE0001A785F4B5200D35A3A1C143212889A4239
:100AF00010D3FB1D1A785A4B5200D25A3B1C1233AA
:100B0000391C143109888A1A1A803B1C16330122B9
:100B10001A700FE0FB1D1A78514B5200D15A3B1C42
:100B200012333A1C143212888A1A1A803B1C16336C
:100B300000221A703B1C16331B78002B1ED13B1C65
:100B400012331B88142B19D9FB1D1B78454AD35C23
:100B5000042B0AD9FB1D1B78181CFFF74DFFFB1D4A
:100B60001B78404A0021D15449E0FB1D1B783D4AC7
:100B7000D25C0132D1B23B4AD15440E03B1C173326
:100B80001B783A1C123212889A4209D93B1C123344
:100B90001B88132B33D83B1C16331B78002B2ED10C
:100BA000FB1D1A782E4B5200D35A1B02FB60FB1D13
:100BB0001B782D4AD35CFA681343FB603B1C14334B
:100BC0001B88FA68D318FB60FB1D1A78244B52006F
:100BD000D35AFA68D31AFB60FB1D1A78FB681B0A0C
:100BE00099B21F4B5200D152FB1D1B78FA68D1B24B
:100BF0001D4AD154FB1D1B781A4A0021D1543B1CBD
:100C000017331B783A1C123212889A4219D93B1CAE
:100C100016331B78002B14D03B1C12331B88FF2B80
:100C200006D9FB1D1A78114901235B428B540DE054
:100C3000FB1D1B783A1C12321288D1B20B4AD154D8
:100C400004E0FB1D1B78094A0021D154BD4606B0C3
:100C500080BDC046B8170000F4170000080100204E
:100C60002801002054010020340100203C01002014
:100C700080B582B000AF7B1D00221A7020E0BB1D42
:100C80007A1D1278D2081A707B1D1A780723134038
:100C900001229A40FB1D1A70BB1D1B780C4AD25CC6
:100CA000FB1D1B781340DBB2002B04D07B1D1B788F
:100CB000181CFFF7F7FE7B1D7A1D127801321A709F
:100CC0007B1D1B78042BDAD9BD4602B080BDC0461F
:100CD000CC00002080B584B000AFFB1D1870BB1D98
:100CE00019707B1D1A703A1C0A3201235B42137083
:100CF0003B1C0B3300221A70FB1D1A78204BD318B3
:100D0000FB603B1C093300221A702AE03B1C0933AC
:100D10001A78FB68D3181B787A1D12789A4219D278
:100D20003B1C09331A78FB68D3181B783A1C0B322A
:100D300012789A420ED23B1C0A333A1C09321278BE
:100D40001A703B1C09331A78FB68D2183B1C0B3312
:100D500012781A703B1C09333A1C0932127801329E
:100D60001A703A1C0932BB1D12781B789A42CDD3F7
:100D70003B1C0A331B78181CBD4604B080BDC0461E
:100D80003C01002090B587B000AF8446081C111CC0
:100D90001A1CFB1D64461C70BB1D18707B1D19704E
:100DA000BB1C1A80BB1D1A78554BD3187B613B1CAA
:100DB0000933FA1D1278013A1A703B1C0A33FA1DE6
:100DC000127801321A70FB1D1A787B69D3181A78D1
:100DD0004C4B5A70FB1D1B78002B0BD1494B00224A
:100DE0001A703B1C0A331A787B69D3181A78454B62
:100DF0009A7022E0FB1D1A787B1D1B78013B9A42FA
:100E00000BD13B1C09331A787B69D3181A783D4BF8
:100E10001A703C4B00229A700FE03B1C09331A7881
:100E20007B69D3181A78374B1A703B1C0A331A782F
:100E30007B69D3181A78334B9A70324B1B783A1C63
:100E4000283212789A4209D22E4B1A783B1C28334A
:100E50001B78D31ADAB22B4B1A7002E0294B00220E
:100E60001A70284B5A783B1C28331B78D31ADAB2F5
:100E7000244B5A70234B9B783A1C283212789A42A2
:100E800009D2204B9A783B1C28331B78D31ADAB24C
:100E90001C4B9A7002E01B4B00229A70194B9B78F6
:100EA0001A1C184B1B78D31AFB60164B1B781A1CA4
:100EB000144B5B78D218134B9B78D3183B61FB68BB
:100EC0001B02181C396900F06FFB031C1A1CFB1D68
:100ED0001B781B02D3183B61BB1C1A883B69534328
:100EE0003B613B69FE22D2019B181A0C3B1C0B3361
:100EF0001A703B1C0B331B78181CBD4607B090BD05
:100F00003C0100204801002090B587B002AF021CD0
:100F1000FB1D1A70FB1D1A783B1C093358498A5C6B
:100F20001A70FB1D1A783B1C0A3356498A5C1A70EA
:100F3000FB1D1A783B1C0E3353498A5C1A70FB1D4B
:100F40001A783B1C0F3351498A5C1A70FB1D1B78C1
:100F50004F4AD35C3A1C0E3211783A1C0F32127889
:100F6000081C111C1A1CFFF7B5FE031C1A1C3B1CA5
:100F70000B331A703B1C0B331B78FF2B62D0FB1D0D
:100F80001A78444B5200D35AFA1D12784249895CB0
:100F90008C463A1C0B3210783A1C0E3211783A1CEF
:100FA0000F32127864460094FFF7ECFE031C1A1C03
:100FB0003B1C0C331A803B1C0A331A781F23134046
:100FC000002B52D03B1C08333A1C093212780132F4
:100FD0001A703B1C09331B78294AD35C002B0FD1B4
:100FE0003B1C08331B783A1C0C321288D1B2244ABD
:100FF000D1543B1C09331B78214A0121D15437E0DD
:101000003B1C0A331A7808231340002B2FD03B1CBB
:1010100008331B781A4AD35C3A1C0C321288101C15
:10102000191C00F03BF8031C1A1C3B1C0C331A80E3
:101030003B1C08331B783A1C0C321288D1B2104A80
:10104000D15415E03A1C0C3201235B4213803B1C47
:101050000A331A781F231340002B09D03B1C093395
:101060001B78074A0021D15402E0C04600E0C04688
:101070003B1C0C331B88181CBD4605B090BDC046F8
:10108000E80000200C180000001800000418000000
:10109000F017000008180000F417000080B584B0B5
:1010A00000AF0A1CBB1D011C19803B1D1A80BB1D13
:1010B0001A883B1D1B88D318FB603B1D1B885B00F7
:1010C000FA68D318FB60FB689B08FB60FB689BB267
:1010D000181CBD4604B080BD80B582B000AF00F0E2
:1010E00044F9031C1A1CFB1D1A701E4B01221A60C6
:1010F0001D4B1B78DBB2181CFFF748FC1B4B1B7801
:10110000DBB25BB2002B07DA184B1B78DBB2FE2296
:101110001340164A13701CE0134B1B78DBB2181CEB
:10112000FFF724FA031C1A1C0F4B1A700E4B1B7886
:10113000DBB2042B06D80C4B1B78DBB2181CFFF774
:10114000BFFB06E0094B1B78DBB2FE221340074AC7
:101150001370FB1D1B78181C00F00BF9BD4602B084
:1011600080BDC04614000840060100200501002093
:1011700080B500AF0E4A8023DB0413600C4B0C4A91
:1011800012681A600A4B0A4A12681A60094AC32395
:101190009B001360002000F059F8642000F03AF83A
:1011A000002000F045F8044B31221A60BD4680BD96
:1011B00000010540240105402801054080B582B0AA
:1011C00000AF00F0D2F8031C1A1CFB1D1A70074B6D
:1011D000064A116801220A431A60FB1D1B78181C7D
:1011E00000F0C7F8BD4602B080BDC0460000054013
:1011F00080B500AF064B1B78002B04D1FFF7B8FF7A
:10120000034B01221A70FFF7D9FFBD4680BDC046CF
:101210005001002080B582B000AF7860034B7A683F
:101220001204120C1A60BD4602B080BD14010540C4
:1012300080B582B000AF7860034B7A681204120C5C
:101240001A60BD4602B080BD0C01054080B582B079
:1012500000AF7860024B7A681A60BD4602B080BD6C
:101260003801054080B500AF044A044B196880235B
:101270001B060B431360BD4680BDC0468000024084
:1012800080B500AF044A044B196880231B060B434A
:101290001360BD4680BDC0464000024080B500AF2F
:1012A000034B034A1268520052081A60BD4680BDC3
:1012B0004000024080B584B000AF0A1CBB1D011C79
:1012C00019807B1D1A70084B1B681B0C1B04BB602C
:1012D000BB1D1A88BB681343FB60034BFA681A6096
:1012E000BD4604B080BDC0464000024080B500AF9E
:1012F000044A044B196880231B060B431360BD4648
:1013000080BDC0460000024080B500AF034B034AD9
:101310001268520052081A60BD4680BD00000240AB
:1013200080B584B000AF0A1CBB1D011C19807B1D59
:101330001A70084B1B681B0C1B04BB60BB1D1A8872
:10134000BB681343FB60034BFA681A60BD4604B0E8
:1013500080BDC046000002400230800804D0C04674
:101360000138FDD1C046C0467047EFF3108072B619
:10137000704780F31088704780B584B000AF021CBE
:101380003960FB1D1A7080239B05FB60FB1D1B78D9
:101390001F2B02D9002000F095F8FB1D1B7810339D
:1013A0009A00FB68D3181B68BB60FB1D1B781033C9
:1013B0009A00FB68D3183A681A60BB68181CBD46CF
:1013C00004B080BD80B586B000AF0A1CFB1D011CB7
:1013D0001970BB1D1A70BB1D1B78032B02D900208E
:1013E00000F070F8FB1D1B781F2B02D9002000F0C5
:1013F00069F8FB1D1A7803231340DB0006333B61B9
:10140000FFF7B3FF031C1A1C3B1C0F331A70FB1DA4
:101410001B789B08DBB29B0013495B181B687B6140
:101420003B690322111C99400B1CDB437A69134072
:101430007B61BB1D1A783B69111C99400B1C7A69B2
:1014400013437B61FB1D1B789B08DBB29B00064AA4
:101450009B187A691A603B1C0F331B78181CFFF726
:1014600088FFBD4606B080BD00E400E080B582B0D4
:1014700000AF021CFB1D1A70064BFA1D11781F22CB
:101480000A400121081C9040021C1A60BD4602B0AF
:1014900080BDC04600E100E080B582B000AF021C14
:1014A000FB1D1A70064BFA1D11781F220A400121FC
:1014B000081C9040021C1A60BD4602B080BDC046A8
:1014C00080E100E080B582B000AF021CFB1D1A7005
:1014D00001BEBD4602B080BD80B582B000AF021C27
:1014E000BB1D1A80BB1D1B88044A12785343181C6D
:1014F000FFF732FFBD4602B080BDC046F4000020B9
:1015000080B582B000AF786039607A683B68101CA3
:1015100000211A1C00F0AAF8BD4602B080BDC046EA
:1015200080B586B000AF786039600023FB6000238F
:10153000BB602EE0BB689A007B68D3181B683B61D8
:101540003B1C17333A691A703B69FF2293433B6196
:1015500017E0FB685A003B68D3181B781A1C3B69DC
:10156000D318FA6851003A688A1852781A70FB68E2
:101570000133FB603B1C17333A1C17321278013AD7
:101580001A703B1C17331B78002BE2D1BB68013368
:10159000BB60BB68062BCDD9BD4606B080BDC0463A
:1015A00080B500AFBD4680BD002941D010B4041CF9
:1015B0004C40A44601230022002900D549420028BE
:1015C00000D5404288422CD301242407A14204D2F2
:1015D000814202D209011B01F8E7E400A14204D2D2
:1015E000814202D249005B00F8E7884201D3401AE9
:1015F0001A434C08A04202D3001B5C0822438C080B
:10160000A04202D3001B9C082243CC08A04202D374
:10161000001BDC082243002803D01B0901D0090964
:10162000E3E7101C6446002C00D5404210BC704714
:10163000002806D003DB0020C043400801E08020E2
:10164000000607B4024802A14018029003BDC0463C
:10165000190000000029EBD003B5FFF7A7FF0EBC6F
:101660004243891A1847C0467047C04630B5C9B2D0
:10167000032A08D8002A05D0031C12181970013358
:101680009342FBD130BD8418031C032201E0197082
:1016900001331342FBD10A02521815045219E51AFC
:1016A00011E01A605A609A60DA601A615A619A61B0
:1016B000DA611A625A629A62DA621A635A639A6348
:1016C000DA63403D40333F2DEBDCE51A05E01A605C
:1016D0005A609A60DA60103D10330F2DF7DCE51A7E
:1016E00001E004C3043D032DFBDC01E0197001336C
:1016F0009C42FBD8C6E7C04608B500F01DF80A4B6F
:10170000002B01D1002000E01868084B002B01D10C
:10171000002100E019680022FEF724FE044B002B94
:1017200001D000E000BFFEE7000000000000000064
:1017300000000000FEE7000070B50D4D0D4E761B59
:10174000B610002E05D0002408CD01349847A642DB
:10175000FAD800F093F8084D084E761BB610002E0C
:1017600005D0002408CD01349847A642FAD870BDB0
:1017700088180000881800008818000090180000E1
:10178000010101010100000002000000040000004E
:101790000800000010000000200000000102030407
:1017A000050000003C3C3C3C3C00000050505050C8
:1017B000500000000000FF0F0000000000000000CB
:1017C0000000014004000140080001400C000140FD
:1017D00008000440080104400802044008030440D3
:1017E00000000440000104400002044000030440E3
:1017F0006400000014000000000000000100000070
:1018000000000000050000000019000008000000B2
:1018100000300F40000400400F40000404300F402F
:1018200001310F4003330F4002400F4005410F408C
:1018300002420F400E430F4038803E4058045F0183
:101840001801B401E280E6105304D42062048B0432
:101850008E049708D8406C40DC0218802002610298
:1018600088018C40A102B440B502C608C808D8025D
:10187000E201E608EC08000004000000F8B5C046EC
:10188000F8BC08BC9E46704749030000FD030000F9
:10189000F8B5C046F8BC08BC9E467047350300004A
:1018A00000000000B8180000C80000203800000048
:0818B0006000000000000000D0
:1018B800000000001F000000080104400801044067
:1018C800080104400801044008010440010C00001C
:1018D8000100000000366E01C05D00001800000025
:0818E8000000E02EC0F1FF0F2B
:04000003000003ED09
:00000001FF
