:1000000000100020850300007D0300007D03000038
:10001000F8B51148114A1AE055689368D4689D42B2
:1000200009D0002104E06E1877683668C0C3083133
:10003000A142F8D100E01B191469002103E000255A
:10004000002660C30831A142F9D1143201380028DA
:10005000E2D100F0BFFBC04601000000E80800004C
:1000600080B584B000AF021CFB1D1A70224A3B1CF5
:100070000E3312781A70214A3B1C0F3312781A7013
:100080001F4B1B68013BBB601AE01E4B1868BA6827
:10009000391C0E31131C5B009B181B1801331B7895
:1000A0000B70184B1868BA68391C0F31131C5B00B1
:1000B0009B181B1802331B780B70BB68013BBB609D
:1000C000BB68002B0ADB0F4B1968BA68131C5B0076
:1000D0009B185B5CFA1D12789A42D6D90A4B3A1CDF
:1000E0000E3212781A60094B3A1C0F3212781A60DD
:1000F000BD4604B080BDC046CCF1FF0FCDF1FF0F6F
:10010000C0080000DC0000201CFF0B4020FF0B405B
:1001100080B500AF164A164B19688023DB020B43EB
:1001200013601820FFF79CFF124B19221A6005205C
:1001300000F0E6FA104B114A1278D2B21A6005208C
:1001400000F0D4F90A4B0A4A11680D4A0A401A60B5
:100150000C4B10221A600C4A82231B0613600B4AB8
:1001600080231B0613600A4B0A4A1A60BD4680BDF5
:1001700000010B402CFF0B4028FF0B40E5F1FF0F67
:10018000FFFFFBFF0802024008010B4004010B4087
:1001900000000240CF00008080B582B000AF72B690
:1001A000FB1C00221A7024E0FB1C1A78131C5B0055
:1001B0009B185B001A1C3C4BD3187B607B681A7839
:1001C000597809020A43997809040A43DB781B0627
:1001D00013431A1C7B6819795B791B020B439BB292
:1001E000101C191C00F030FAFB1CFA1C12780132AA
:1001F0001A70FB1C1B78012BD6D92C4A2C4B101CD7
:10020000191C00F031FA2B4AC0239B0113602A4AC3
:10021000EE231B021360294B99221A60284B0822F7
:100220001A60284AC0231B011360274B03221A605F
:10023000264B03221A60264B264A1A60264AD823E8
:100240001B011360254B02221A60254B31221A60D4
:10025000244A99231B041360234A80231B04136040
:10026000224A99231B041360214A99231B0413601B
:10027000204A99231B0413601F4B1F4A1278D1B2E6
:1002800002220A43D2B21A701B4B1B4A1278D1B217
:1002900006220A43D2B21A70FFF73AFF00F024FA9E
:1002A000BD4602B080BDC04698080000A40800000A
:1002B000B0080000000001400C00014010000140A7
:1002C00000000440080004400001044018010440FC
:1002D00008020440B66D1B000803044000040440FB
:1002E0000804044000500F4008500F4010500F40C9
:1002F00020500F4030500F4000700F4000B5034BAE
:100300001A78002A01D10120187000BDE0000020F9
:1003100008B504480368002B03D0034B002B00D022
:10032000984708BDC80000200000000080B500AF5D
:1003300000F082F800F004F9032000F08FF80C4B75
:10034000181C00F067F900F0A1F8031C002B04D181
:10035000084B181C00F05EF903E0074B181C00F076
:1003600059F9C8235B00181C00F09CF8EBE7C04665
:100370005C080000700800008408000080B500AF31
:10038000FEE7C046014B9D46014B18470010002078
:100390001100000080B582B000AF00237B600FE049
:1003A00079687B68032B04D87A680D4B9200D35888
:1003B00000E00C4B0C4A89008B507B6801337B605A
:1003C0007B682F2BECD9FFF7E7FE084B00221A6061
:1003D0008023DB0501221A60BD4602B080BDC04605
:1003E000000000007D03000000000020C00000208D
:1003F00080B500AF044A80231B061360034B5022D4
:100400001A60BD4680BDC046000010400400104088
:1004100080B500AF064B064A126803218A431A6072
:10042000034B034A1168034A0A431A60BD4680BD64
:10043000040010400308000080B500AF064B1B68A5
:10044000002B04D1044B01221A60FFF7D1FFFFF704
:10045000DFFFBD4680BDC046E400002080B582B00D
:1004600000AF7860084B084A126803218A431A607B
:10047000054B054A11687868032202400A431A6056
:10048000BD4602B080BDC0460400104080B500AF3C
:10049000034B1A6801231340181CBD4680BDC0469B
:1004A0000C00104080B582B000AF786008E00C4BC3
:1004B0001B68181C00F024F97B680A4A9B187B60B3
:1004C0007A6880231B029A42F1D8074B1B687A682E
:1004D0005343181C00F014F9BD4602B080BDC0465D
:1004E000D80000200080FFFFD000002080B582B03F
:1004F00000AF021CBB1D1A80BB1D1B88044A12786A
:100500005343181C00F0FCF8BD4602B080BDC04645
:10051000D400002080B500AF00F028F8BD4680BDB3
:1005200080B500AF054A054B196880231B060B43B5
:10053000136000F017F8BD4680BDC04600000640BD
:1005400080B500AF064B1B78002B04D1044B012271
:100550001A70FFF7DFFFFFF7E3FFBD4680BDC0461F
:10056000E800002080B500AFBD4680BD80B500AF7B
:10057000174B184A1A60184B00221A60174B0122B9
:100580001A60174B174A1A60174B07221A60174B4D
:1005900000221A60164B01221A60164B114A1A608B
:1005A000154B00221A60154B00221A60144B0022D2
:1005B0001A60144B00221A60134B00221A60134B6E
:1005C00000221A60124B00221A60BD4680BDC04650
:1005D000000006400B0000024000064048000640B4
:1005E0000003064007000080040306401003064095
:1005F000440006400002064004020640880E064001
:10060000C80E0640480F0640080F0640C80F0640B7
:10061000880F064080B584B000AF78600023FB608F
:1006200009E07A68FB68D3181B78181C00F078F88A
:10063000FB680133FB607A68FB68D3181B78002BDA
:10064000EFD1BD4604B080BD80B582B000AF786008
:1006500039607A683B68101C00211A1C00F074F89D
:10066000BD4602B080BDC04680B586B000AF7860A0
:1006700039600023FB600023BB602EE0BB689A005A
:100680007B68D3181B683B613B1C17333A691A70AF
:100690003B69FF2293433B6117E0FB685A003B68CC
:1006A000D3181B781A1C3B69D318FA6851003A68B2
:1006B0008A1852781A70FB680133FB603B1C1733B1
:1006C0003A1C17321278013A1A703B1C17331B7808
:1006D000002BE2D1BB680133BB60BB68022BCDD9D4
:1006E000BD4606B080BDC04680B500AF024A822339
:1006F0005B001360BD4680BD80001040000000001C
:100700000230800804D0C0460138FDD1C046C04642
:100710007047EFF3108072B6704780F3108870470F
:1007200080B582B000AF7860054B1A680F23134084
:10073000082BF9D0034B7A681A60BD4602B080BD21
:10074000080206404002064030B5C9B2032A08D864
:10075000002A05D0031C1218197001339342FBD1F3
:1007600030BD8418031C032201E0197001331342C9
:10077000FBD10A02521815045219E51A11E01A6049
:100780005A609A60DA601A615A619A61DA611A6293
:100790005A629A62DA621A635A639A63DA63403D74
:1007A00040333F2DEBDCE51A05E01A605A609A6091
:1007B000DA60103D10330F2DF7DCE51A01E004C3B9
:1007C000043D032DFBDC01E0197001339C42FBD892
:1007D000C6E7C04608B500F01DF80A4B002B01D152
:1007E000002000E01868084B002B01D1002100E038
:1007F00019680022FFF79AFD044B002B01D000E09E
:1008000000BFFEE700000000000000000000000044
:10081000FEE7000070B50D4D0D4E761BB610002E94
:1008200005D0002408CD01349847A642FAD800F03C
:1008300049F8084D084E761BB610002E05D000244E
:1008400008CD01349847A642FAD870BDD008000000
:0C085000D0080000D0080000D80800000C
:10085C00436F6D70617261746F7220546573740DA7
:10086C000A000000526573756C74203A20563120D2
:10087C003C2056320D0A0000526573756C74203A98
:10088C00205631203E2056320D0A000000300F4019
:10089C00000400400F40000401310F4004400F40A1
:1008AC0003420F40E2015B208320D480E2802A8047
:1008BC008280CA0804000000F8B5C046F8BC08BC29
:1008CC009E4670471103000095030000F8B5C04622
:1008DC00F8BC08BC9E467047FD02000000000000FA
:1008EC0000090000C80000201800000010000000E3
:0408FC0000000000F8
:100900000000000000366E01C05D0000180000000D
:080910000000E02EC0F1FF0F12
:040000030000038571
:00000001FF
