:4000000000100020A5020000A1020000A1020000F8B51148114A1AE055689368D4689D4209D0002104E06E1877683668C0C30831A142F8D100E01B191469002103E0002572
:40004000002660C30831A142F9D1143201380028E2D100F08BFFC0460100000034130000F8B572B6614C624B01221A700021A288206800F035FF2089E388000418430021C8
:40008000628900F02DFF231C0C3300211A68574EFF27D5B24800BA433036171C3218281C06E016785478F61901383470C0B202320028F6D14F4A043349199342E6D14E4A43
:4000C00080235B0013804D4B01221A704C4B30221A604C4AC0239B041360EE231B0208321360494B02221A60312208331A604022F8331A60454AC0235B031360444AD82354
:400100001B011360434A444B44491A60444A80239B02136080231B030432136099231B0408321360802292050A603E4A13603E4B10221A603D4B05221A603D4B06221A60B4
:400140003C4B022219780A431A70197806220A431A70394A80231168DB020B431360374B197801331A780D3B587A172810D99879997ADA7A17280BD9D878D9791A7A172874
:4001800006D9187819795A79172801D959789A782B4B0520196004331A6019220C331A6000F00EFE274B05201A78274B1A6000F0E3FB214B254A19680A401A60244B3022F6
:4001C0001A60102210331A60224A80231B061360043A1360204A214B1A600D32FF3240331A601F4A40331A60F8BDC046301000001C700F406010000000600F4002600F4099
:4002000000000140040001400000044008010440080304400400990000500F4018500F4004500F4030500F40200105402000004000800F4000700F4000010B40CCF1FF0F88
:400240001CFF0B40E5F1FF0F28FF0B40FFFFFBFF2002024008010B4033000080000002402B0100C000B5034B1A78002A01D10120187000BDF000002008B504480368002B8B
:4002800003D0034B002B00D0984708BDD00000200000000008B500F003FC00F02FFAFEE700B5FEE7024B9D4600F058F8014B1847001000201100000008B500220023032BBE
:4002C00001D90C4901E00C4989580C48013381500432302BF3D1FFF7C3FE094B00221A60084B1A68002A00D11A608023DB0501221A6008BDA1020000000000000000002071
:40030000C8000020C000002000B5002305E0027801399B189BB2013089B20029F7D15B4298B200BD00B50B18002003E01A7801398018C0B2013B0029F8D100BD034B8022F7
:400340001A60034A034B1A607047C046C00000200400FA050CED00E00047000008B5154B1B68DA0625D5144B1A68802A21D100221A60124B1A7801331878013319780133EF
:400380001B78002805D1002903D1002A01D1002B0FD00A4B1A78013318780133197801331B7800020904084310431B061843FFF7D3FF08BD00030B40C0000020C17F00004E
:4003C000F0B51B4B1B4A1C481F78117805780130067801300478013000780902360224043943344301312C430006C90104430C191978137800221B020B430133DB01002172
:4004000008E01878451EEDB2FD2D00D801211218D2B20133A342F4D3084B52421B78D2B29A4203D1002901D0002000E00620F0BDC57F0000C67F0000C97F0000C07F000005
:4004400030B583B06D46063501230C1C2A800B70487091B20B0AA1700431E37089B2201CFFF752FF29881722631818710731000A58719A7189B22A1C201C962300F0C8F973
:4004800003B030BDF0B5934CA544002802D1FF21019100E001904442444100F0CAF962B60022029200268C4D50AF6D449621381C49002A1C019B00F055F9052800D1F1E093
:4004C000102800D1EEE02B88062B00D8E5E03A78012A00D0E1E06A46694643324431FF31FF3212780D782D021543291D7A18127803926A1DBA1812780092EA1D9A427FD850
:40050000EB199B79172B00D0C7E089B2381CFFF7FBFE0099039A0B021343834200D1C5E00820BBE0002C00D1B7E0002D00D0B4E0FFF746FF50AB424242411A719DE0002C3F
:4005400000D1AAE0012D00D0A7E0009B002B0ED1624B6C461B6824781A6850ABD20992B21A71120A5A71012252429A71DC7101240020042293E0002C02D0032D00D08BE014
:4005800005A80021802200F0ABFC8026002C00D183E0022D00D880E06946EA1E05A8483175198019FF31ADB200F01AFC832D02D00124002624E06B464633FF3302981E78D1
:4005C00001331D7800280BD19BAC00218022201C00F086FC211CFF2000F034F9012102912802304305A900F02DF901240026002854D00A2052E0962377195B009F4201D995
:4006000003204BE005A8801951A92A1C00F0E8FBBEB2002042E0002D3FD19BAB304A191C11CA11C151AA12CB12C200200124082235E0002C31D0032D2FD16B466A4646331B
:400640004732FF33FF321B781478009924021C4308022018C0018021FFF764FEFF2C09D1009A002A06D11F4B1B78C01A1E4B1B78C01AC0B2404250AB187101240020012238
:400680000DE0FFF79DFE002802D1184B80221A60174A184B1A6005E001240420002250A9FFF7CEFE002C00D0FDE60EE03B7900937B78313BDBB20A2B05D80F4A9B009B5800
:4006C0009F460026EEE70520E8E7BD239B009D44F0BDC0460CFDFFFFEE020000D400002028100000D07F0000D17F0000C00000200400FA050CED00E0FC0F000010B5164C67
:40070000C02023681968C039FFF70CFE63681B78181AC0B2984203D123681B68002B02D1002000F017F9FFF74BFE002807D10B4B1B68DA0609D50A4B1B68402B05D1084BB6
:4007400000221A600020FFF79DFEC820FFF79AFEFFF7F4FD10BDC046D400002000030B40C0000020F0B59D0085B0ED1801900391171C6D00002415E000F01AFA00280CD078
:4007800000F016FA041C192000F000F900F010FAA042F5D80022009208E0012000F0F6F80134A4B2AC42E7DB0523009300233B80002526E000F0FCF93B88039AC3189BB247
:4007C000061C3B80934219D2002406E000F00EFA019B029A01349854A4B263199BB20293B442F3D37519019AADB2AB18013B1B78172B06D0052000F0C9F802E01E1A3E80B1
:4008000003E000F0D5F90028D4D1009805B0F0BDF8B5061C0D1C171C00F0ACF90024305D013400F04BF9A3B2AB42F8D33D800020F8BD08B500F04EFA00F09CF900F078F9FC
:4008400008BD000010B5A6B00023041C2593002959D0FF2857D82E4B01AA1A6080235B0003402C481B04034301937F23536003A8802200F0B5FA284A284B1A60274B1B6814
:40088000002BFBDB224B1B682493249AA0231B069A4201D1002306E0249AF0231B061A409A4202D10923259308E0194B1A68F0231B061A40A0231B069A42F6D1259B002B8A
:4008C00023D1134B01AA1A60154B24041C43019400F07FFA134B144A1B6823930F4B1A600E4B1B68002BFBDB239A0E4B1A6000F074FA074B1B682493249AA0231B069A42FE
:4009000003D0249B00E001232593259826B010BD08000040B6D700000400008004000040B6D8000008010B40050000801F23184001238340181C014B1860704700E100E014
:400940001F23184001238340181C014B1860704780E100E001BE704738B5041C0D1C1F2802D90020FFF7F6FF024BA400E4182068256038BD4000002008B5034B1B795843A4
:4009800000F01EFA08BDC046DC00002010B5041C04E0D06800F014FA054BE41880231B02044A9C42F5D89068604300F009FA10BD0080FFFFDC00002038B5041C0D1C03292D
:4009C00002D90020FFF7C6FF1F2C02D90020FFF7C1FF00F0FEF9A308084A9B009B1803221440E40019680634A2409143A5400C1C2C431C6000F0F1F938BDC04600E400E0B4
:400A0000014B80B21860704714010540014B80B2186070470C010540014B18607047C0463801054008B50C4B8022D2041A601A6801201A601A681A600C2224331A60FFF79D
:400A4000EBFFFE20FFF7DCFF7F20FFF7DFFF034B31221A6008BDC046000105402801054038B50D1C041C00F0B4F9034BAC401C6000F0B3F938BDC0460800054008B500F076
:400A8000A8F9064B012219680A431A6000F0A5F901201821FFF7E4FF08BDC0460000054010B5054C2378002B03D1FFF7BBFF01232370FFF7E3FF10BDF100002010B5104B1B
:400AC0005B780F4A9278934202D2511E591A01E0991A3F394C4261410029F2D19A4206D1084A1278510702D4074B187007E03F2B00D90023054AD054014A0133537010BDA7
:400B0000F200002062000F4042000F403C01002008B50220FFF714FF08BD08B50020FFF70FFF08BD08B50220FFF700FF08BD000008B500F04EF90A4B012219780A431A7044
:400B40001978FE220A401A7000F047F9FFF7E0FF044B00229A705A70FFF7E4FF08BDC04692000F40F200002008B50020FFF7DEFE08BD000008B500F02CF90B4B01221978BF
:400B80000A431A701978FE220A401A7000F025F9FFF7C3FF054B00225A719A71DA711A70FFF7E2FF08BDC04693000F40F200002010B5FFF7B2FF0C4B59799A79914206D10E
:400BC000DB79002B01D100240AE0402408E059799A799C795B79914200D34034E41AE4B2FFF7C2FF201C10BDF200002010B5FFF794FF0E4B5A799979DB79002B01D18A4253
:400C00000ED00B4B9C5C0132D2B23F2A00D90022064B5A71DA79002A04D00022DA7101E0044B1C78FFF7A0FF201C10BDF2000020FC00002043000F4038B500F0CAF80E4B79
:400C40002022197810240A431A7001331A78051C2243D2B21A700020FFF768FE074B02201A781443E4B21C70FFF760FE00F09CF8281C00F0B2F838BD90000F4092000F40D6
:400C800008B510490020FFF767FE00200321FFF793FE0D4B72221A70202201331A700B490220FFF759FE02200321FFF785FE084B07221A70482210331A70022251331A7071
:400CC00008BDC046F10C000080000F405D0D000021000F4010B5054CE378002B03D1FFF7CFFF0123E370FFF7A7FF10BDF200002000B51FE0124A134B1B781178124AD15452
:400D0000124B1B78002B02D0114B01221A700D4B1A780132D2B21A701A783F2A01D900221A70084B1A780B4B1B789A4202D1074B01221A70084B1B789A06DBD400BDC0469D
:400D400043000F40F8000020FC000020F9000020F2000020F700002061000F4000B50D4B18780DE019783F2900D91A700A4B0B491A78895C0A4A11701A780132D2B21A700D
:400D8000054B1A78824204D0064A117804220A40E8D000BDF3000020F40000203C01002042000F4062000F40034A802311681B060B4313607047C0460000024000000000EB
:400DC0000230800804D0C0460138FDD1C046C0467047EFF3108072B6704780F310887047F0B585B0032A09D8002A05D00023CC5CC45401339342FAD105B0F0BD8218031C49
:400E0000032403E00D7801311D70013303252342F8D10D403DD1D41A22E00D68403C1D604D685D608D689D60CD68DD600D691D614D695D618D699D61CD69DD610D6A1D6285
:400E40004D6A5D628D6A9D62CD6ADD620D6B1D634D6B5D638D6B9D63CD6B4031DD6340333F2CDADCD41A0AE00D68103C1D604D685D608D689D60CD681031DD6010330F2C00
:400E8000F2DCD41A02E020C9043C20C3032CFADC23E0EF006C42029704270E597D1BED000095B446D51A0C190FE0266867460196029E0431F7400397009E019F043DB740B3
:400EC000039E3E43019F40C3BC460434032DECDC03E00C7801311C7001339342F9D38BE730B5C9B2032A08D8002A05D0031C1218197001339342FBD130BD8418031C0322AF
:400F000001E0197001331342FBD10A02521815045219E51A11E01A605A609A60DA601A615A619A61DA611A625A629A62DA621A635A639A63DA63403D40333F2DEBDCE51A2E
:400F400005E01A605A609A60DA60103D10330F2DF7DCE51A01E004C3043D032DFBDC01E0197001339C42FBD8C6E7C04608B500F01DF80A4B002B01D1002000E01868084BAD
:400F8000002B01D1002100E019680022FFF782F9044B002B01D000E000BFFEE7000000000000000000000000FEE7000070B50D4D0D4E761BB610002E05D0002408CD013409
:400FC0009847A642FAD800F0A3F9084D084E761BB610002E05D0002408CD01349847A642FAD870BD1C1300001C1300001C13000024130000FD000000801300002405000056
:401000003E050000C606000076050000C2060000C6060000F6050000160600008C05000032060000820600009311C804110A010100300F40000400400F40000403000F4035
:401040004F300F4035310F406B320F404D330F400A400F4009410F4004430F4002600F4080728138820F011004F30518060C080F09080AF00C820D3C0F421041130416F38B
:40108000170318C319671B181CFF1D7F20082404253C2741280C29042B802C1C2EE330C03180322C3320340F351F361C374039803A283B203F0456025712580459045B040F
:4010C0005F018C049A019E01A002B002B201B404B602BB02BE54C002C601C750C824C9FFCA07CBFFCC40CD20CEF0CF05D008D418D604D804D904DA04DB04DF01E040E1A869
:40110000E240E320004403080702088409010A040D501080114013281640180419161A021B081D011E0A1F0421422214274029243004311233403480360337403828394058
:401140003A024710564057025A085D026580674869146A807094720273288740C087C2CFC41FCA06CC0FCE0FD020D682D8B000090210041C05320602070109670B08135DCF
:401180001420156716031718221024102506260C2709280C2A112C14321F3360351E3620370139083B203E403F444035410245E046C047B0482A49FF4AFF4BFF4EF04F443B
:4011C000500C54015604580459045A045B045F0166C06A406B02850687088C448E318F109080931095089703980199089A0E9B05A022A251A30FA4E7A8E7AD02B060B1101C
:40120000B280B307B407B50BB618BB28BE40BF01C062C104C203C401C6ECC80CC9FFCAFFCBFFCC62CDA0CEF0CF41D00CD804D904DA04DF01E640E702E910EA30EB10ED10B0
:40124000EE10EF12004004040501080C0A940E2011161641172818411A141E22202421082364252026402718282029012A402B222F20312832013501370838843C203F040B
:4012800040894308472849904B404D014E0250405110560157205C205D015E885F02678087408A018B088E0191149282944095209604988099119C049D809F12A101A20618
:4012C000A302A961AA10C031C22AC4FECA49CCC7CE6AD06FD214D6F0D880E210E61003405A806E8071208640C010D480DA80DC20E640620485208E449680A520AB40D84020
:40130000E210EC8018808C40C608E60810011101F8B5C046F8BC08BC9E46704779020000B9020000F8B5C046F8BC08BC9E467047650200000000000048130000D000002098
:40134000200000009000000000000000F80F0000F40F000000366E0118000000C05D00000000E02E00000000000000000000000000000000000000000000000000000000CB
:40138000000000000000000000000000000000000000000000000000000000000000000000000000000000000000000000000000000000000000000000000000000000002D
:4013C00000000000000000000000000000000000000000000000000000000000000000000000000000000000000000000000000000000000000000000000000000000000ED
:4014000000000000000000000000000000000000000000000000000000000000000000000000000000000000000000000000000000000000000000000000000000000000AC
:40144000000000000000000000000000000000000000000000000000000000000000000000000000000000000000000000000000000000000000000000000000000000006C
:407FC0000000000000000000000000000000000000000000010000000000000000000000000000000000000000000000000000000000000000000000000000000000000080
:0200000490303A
:020000006E048C
:0200000490501A
:0C000000000204C81193110104CE7F9788
:0200000490600A
:0100000001FE
:0200000490402A
:4000000000000000000000000000000000000000000000000000000000000000000000000000000000000000000000000000000000000000000000000000000000000000C0
:00000001FF
